{
  "_format": "hh-sol-artifact-1",
  "contractName": "MyGovernor",
  "sourceName": "contracts/MyGovernor.sol",
  "abi": [
    {
      "inputs": [
        {
          "internalType": "contract IVotes",
          "name": "_token",
          "type": "address"
        },
        {
          "internalType": "contract TimelockController",
          "name": "_timelock",
          "type": "address"
        }
      ],
      "stateMutability": "nonpayable",
      "type": "constructor"
    },
    {
      "inputs": [],
      "name": "CheckpointUnorderedInsertion",
      "type": "error"
    },
    {
      "inputs": [],
      "name": "FailedInnerCall",
      "type": "error"
    },
    {
      "inputs": [
        {
          "internalType": "address",
          "name": "voter",
          "type": "address"
        }
      ],
      "name": "GovernorAlreadyCastVote",
      "type": "error"
    },
    {
      "inputs": [
        {
          "internalType": "uint256",
          "name": "proposalId",
          "type": "uint256"
        }
      ],
      "name": "GovernorAlreadyQueuedProposal",
      "type": "error"
    },
    {
      "inputs": [],
      "name": "GovernorDisabledDeposit",
      "type": "error"
    },
    {
      "inputs": [
        {
          "internalType": "address",
          "name": "proposer",
          "type": "address"
        },
        {
          "internalType": "uint256",
          "name": "votes",
          "type": "uint256"
        },
        {
          "internalType": "uint256",
          "name": "threshold",
          "type": "uint256"
        }
      ],
      "name": "GovernorInsufficientProposerVotes",
      "type": "error"
    },
    {
      "inputs": [
        {
          "internalType": "uint256",
          "name": "targets",
          "type": "uint256"
        },
        {
          "internalType": "uint256",
          "name": "calldatas",
          "type": "uint256"
        },
        {
          "internalType": "uint256",
          "name": "values",
          "type": "uint256"
        }
      ],
      "name": "GovernorInvalidProposalLength",
      "type": "error"
    },
    {
      "inputs": [
        {
          "internalType": "uint256",
          "name": "quorumNumerator",
          "type": "uint256"
        },
        {
          "internalType": "uint256",
          "name": "quorumDenominator",
          "type": "uint256"
        }
      ],
      "name": "GovernorInvalidQuorumFraction",
      "type": "error"
    },
    {
      "inputs": [
        {
          "internalType": "address",
          "name": "voter",
          "type": "address"
        }
      ],
      "name": "GovernorInvalidSignature",
      "type": "error"
    },
    {
      "inputs": [],
      "name": "GovernorInvalidVoteType",
      "type": "error"
    },
    {
      "inputs": [
        {
          "internalType": "uint256",
          "name": "votingPeriod",
          "type": "uint256"
        }
      ],
      "name": "GovernorInvalidVotingPeriod",
      "type": "error"
    },
    {
      "inputs": [
        {
          "internalType": "uint256",
          "name": "proposalId",
          "type": "uint256"
        }
      ],
      "name": "GovernorNonexistentProposal",
      "type": "error"
    },
    {
      "inputs": [
        {
          "internalType": "uint256",
          "name": "proposalId",
          "type": "uint256"
        }
      ],
      "name": "GovernorNotQueuedProposal",
      "type": "error"
    },
    {
      "inputs": [
        {
          "internalType": "address",
          "name": "account",
          "type": "address"
        }
      ],
      "name": "GovernorOnlyExecutor",
      "type": "error"
    },
    {
      "inputs": [
        {
          "internalType": "address",
          "name": "account",
          "type": "address"
        }
      ],
      "name": "GovernorOnlyProposer",
      "type": "error"
    },
    {
      "inputs": [],
      "name": "GovernorQueueNotImplemented",
      "type": "error"
    },
    {
      "inputs": [
        {
          "internalType": "address",
          "name": "proposer",
          "type": "address"
        }
      ],
      "name": "GovernorRestrictedProposer",
      "type": "error"
    },
    {
      "inputs": [
        {
          "internalType": "uint256",
          "name": "proposalId",
          "type": "uint256"
        },
        {
          "internalType": "enum IGovernor.ProposalState",
          "name": "current",
          "type": "uint8"
        },
        {
          "internalType": "bytes32",
          "name": "expectedStates",
          "type": "bytes32"
        }
      ],
      "name": "GovernorUnexpectedProposalState",
      "type": "error"
    },
    {
      "inputs": [
        {
          "internalType": "address",
          "name": "account",
          "type": "address"
        },
        {
          "internalType": "uint256",
          "name": "currentNonce",
          "type": "uint256"
        }
      ],
      "name": "InvalidAccountNonce",
      "type": "error"
    },
    {
      "inputs": [],
      "name": "InvalidShortString",
      "type": "error"
    },
    {
      "inputs": [],
      "name": "QueueEmpty",
      "type": "error"
    },
    {
      "inputs": [],
      "name": "QueueFull",
      "type": "error"
    },
    {
      "inputs": [
        {
          "internalType": "uint8",
          "name": "bits",
          "type": "uint8"
        },
        {
          "internalType": "uint256",
          "name": "value",
          "type": "uint256"
        }
      ],
      "name": "SafeCastOverflowedUintDowncast",
      "type": "error"
    },
    {
      "inputs": [
        {
          "internalType": "string",
          "name": "str",
          "type": "string"
        }
      ],
      "name": "StringTooLong",
      "type": "error"
    },
    {
      "anonymous": false,
      "inputs": [],
      "name": "EIP712DomainChanged",
      "type": "event"
    },
    {
      "anonymous": false,
      "inputs": [
        {
          "indexed": false,
          "internalType": "uint256",
          "name": "proposalId",
          "type": "uint256"
        }
      ],
      "name": "ProposalCanceled",
      "type": "event"
    },
    {
      "anonymous": false,
      "inputs": [
        {
          "indexed": false,
          "internalType": "uint256",
          "name": "proposalId",
          "type": "uint256"
        },
        {
          "indexed": false,
          "internalType": "address",
          "name": "proposer",
          "type": "address"
        },
        {
          "indexed": false,
          "internalType": "address[]",
          "name": "targets",
          "type": "address[]"
        },
        {
          "indexed": false,
          "internalType": "uint256[]",
          "name": "values",
          "type": "uint256[]"
        },
        {
          "indexed": false,
          "internalType": "string[]",
          "name": "signatures",
          "type": "string[]"
        },
        {
          "indexed": false,
          "internalType": "bytes[]",
          "name": "calldatas",
          "type": "bytes[]"
        },
        {
          "indexed": false,
          "internalType": "uint256",
          "name": "voteStart",
          "type": "uint256"
        },
        {
          "indexed": false,
          "internalType": "uint256",
          "name": "voteEnd",
          "type": "uint256"
        },
        {
          "indexed": false,
          "internalType": "string",
          "name": "description",
          "type": "string"
        }
      ],
      "name": "ProposalCreated",
      "type": "event"
    },
    {
      "anonymous": false,
      "inputs": [
        {
          "indexed": false,
          "internalType": "uint256",
          "name": "proposalId",
          "type": "uint256"
        }
      ],
      "name": "ProposalExecuted",
      "type": "event"
    },
    {
      "anonymous": false,
      "inputs": [
        {
          "indexed": false,
          "internalType": "uint256",
          "name": "proposalId",
          "type": "uint256"
        },
        {
          "indexed": false,
          "internalType": "uint256",
          "name": "etaSeconds",
          "type": "uint256"
        }
      ],
      "name": "ProposalQueued",
      "type": "event"
    },
    {
      "anonymous": false,
      "inputs": [
        {
          "indexed": false,
          "internalType": "uint256",
          "name": "oldQuorumNumerator",
          "type": "uint256"
        },
        {
          "indexed": false,
          "internalType": "uint256",
          "name": "newQuorumNumerator",
          "type": "uint256"
        }
      ],
      "name": "QuorumNumeratorUpdated",
      "type": "event"
    },
    {
      "anonymous": false,
      "inputs": [
        {
          "indexed": false,
          "internalType": "address",
          "name": "oldTimelock",
          "type": "address"
        },
        {
          "indexed": false,
          "internalType": "address",
          "name": "newTimelock",
          "type": "address"
        }
      ],
      "name": "TimelockChange",
      "type": "event"
    },
    {
      "anonymous": false,
      "inputs": [
        {
          "indexed": true,
          "internalType": "address",
          "name": "voter",
          "type": "address"
        },
        {
          "indexed": false,
          "internalType": "uint256",
          "name": "proposalId",
          "type": "uint256"
        },
        {
          "indexed": false,
          "internalType": "uint8",
          "name": "support",
          "type": "uint8"
        },
        {
          "indexed": false,
          "internalType": "uint256",
          "name": "weight",
          "type": "uint256"
        },
        {
          "indexed": false,
          "internalType": "string",
          "name": "reason",
          "type": "string"
        }
      ],
      "name": "VoteCast",
      "type": "event"
    },
    {
      "anonymous": false,
      "inputs": [
        {
          "indexed": true,
          "internalType": "address",
          "name": "voter",
          "type": "address"
        },
        {
          "indexed": false,
          "internalType": "uint256",
          "name": "proposalId",
          "type": "uint256"
        },
        {
          "indexed": false,
          "internalType": "uint8",
          "name": "support",
          "type": "uint8"
        },
        {
          "indexed": false,
          "internalType": "uint256",
          "name": "weight",
          "type": "uint256"
        },
        {
          "indexed": false,
          "internalType": "string",
          "name": "reason",
          "type": "string"
        },
        {
          "indexed": false,
          "internalType": "bytes",
          "name": "params",
          "type": "bytes"
        }
      ],
      "name": "VoteCastWithParams",
      "type": "event"
    },
    {
      "inputs": [],
      "name": "BALLOT_TYPEHASH",
      "outputs": [
        {
          "internalType": "bytes32",
          "name": "",
          "type": "bytes32"
        }
      ],
      "stateMutability": "view",
      "type": "function"
    },
    {
      "inputs": [],
      "name": "CLOCK_MODE",
      "outputs": [
        {
          "internalType": "string",
          "name": "",
          "type": "string"
        }
      ],
      "stateMutability": "view",
      "type": "function"
    },
    {
      "inputs": [],
      "name": "COUNTING_MODE",
      "outputs": [
        {
          "internalType": "string",
          "name": "",
          "type": "string"
        }
      ],
      "stateMutability": "pure",
      "type": "function"
    },
    {
      "inputs": [],
      "name": "EXTENDED_BALLOT_TYPEHASH",
      "outputs": [
        {
          "internalType": "bytes32",
          "name": "",
          "type": "bytes32"
        }
      ],
      "stateMutability": "view",
      "type": "function"
    },
    {
      "inputs": [
        {
          "internalType": "address[]",
          "name": "targets",
          "type": "address[]"
        },
        {
          "internalType": "uint256[]",
          "name": "values",
          "type": "uint256[]"
        },
        {
          "internalType": "bytes[]",
          "name": "calldatas",
          "type": "bytes[]"
        },
        {
          "internalType": "bytes32",
          "name": "descriptionHash",
          "type": "bytes32"
        }
      ],
      "name": "cancel",
      "outputs": [
        {
          "internalType": "uint256",
          "name": "",
          "type": "uint256"
        }
      ],
      "stateMutability": "nonpayable",
      "type": "function"
    },
    {
      "inputs": [
        {
          "internalType": "uint256",
          "name": "proposalId",
          "type": "uint256"
        },
        {
          "internalType": "uint8",
          "name": "support",
          "type": "uint8"
        }
      ],
      "name": "castVote",
      "outputs": [
        {
          "internalType": "uint256",
          "name": "",
          "type": "uint256"
        }
      ],
      "stateMutability": "nonpayable",
      "type": "function"
    },
    {
      "inputs": [
        {
          "internalType": "uint256",
          "name": "proposalId",
          "type": "uint256"
        },
        {
          "internalType": "uint8",
          "name": "support",
          "type": "uint8"
        },
        {
          "internalType": "address",
          "name": "voter",
          "type": "address"
        },
        {
          "internalType": "bytes",
          "name": "signature",
          "type": "bytes"
        }
      ],
      "name": "castVoteBySig",
      "outputs": [
        {
          "internalType": "uint256",
          "name": "",
          "type": "uint256"
        }
      ],
      "stateMutability": "nonpayable",
      "type": "function"
    },
    {
      "inputs": [
        {
          "internalType": "uint256",
          "name": "proposalId",
          "type": "uint256"
        },
        {
          "internalType": "uint8",
          "name": "support",
          "type": "uint8"
        },
        {
          "internalType": "string",
          "name": "reason",
          "type": "string"
        }
      ],
      "name": "castVoteWithReason",
      "outputs": [
        {
          "internalType": "uint256",
          "name": "",
          "type": "uint256"
        }
      ],
      "stateMutability": "nonpayable",
      "type": "function"
    },
    {
      "inputs": [
        {
          "internalType": "uint256",
          "name": "proposalId",
          "type": "uint256"
        },
        {
          "internalType": "uint8",
          "name": "support",
          "type": "uint8"
        },
        {
          "internalType": "string",
          "name": "reason",
          "type": "string"
        },
        {
          "internalType": "bytes",
          "name": "params",
          "type": "bytes"
        }
      ],
      "name": "castVoteWithReasonAndParams",
      "outputs": [
        {
          "internalType": "uint256",
          "name": "",
          "type": "uint256"
        }
      ],
      "stateMutability": "nonpayable",
      "type": "function"
    },
    {
      "inputs": [
        {
          "internalType": "uint256",
          "name": "proposalId",
          "type": "uint256"
        },
        {
          "internalType": "uint8",
          "name": "support",
          "type": "uint8"
        },
        {
          "internalType": "address",
          "name": "voter",
          "type": "address"
        },
        {
          "internalType": "string",
          "name": "reason",
          "type": "string"
        },
        {
          "internalType": "bytes",
          "name": "params",
          "type": "bytes"
        },
        {
          "internalType": "bytes",
          "name": "signature",
          "type": "bytes"
        }
      ],
      "name": "castVoteWithReasonAndParamsBySig",
      "outputs": [
        {
          "internalType": "uint256",
          "name": "",
          "type": "uint256"
        }
      ],
      "stateMutability": "nonpayable",
      "type": "function"
    },
    {
      "inputs": [],
      "name": "clock",
      "outputs": [
        {
          "internalType": "uint48",
          "name": "",
          "type": "uint48"
        }
      ],
      "stateMutability": "view",
      "type": "function"
    },
    {
      "inputs": [],
      "name": "eip712Domain",
      "outputs": [
        {
          "internalType": "bytes1",
          "name": "fields",
          "type": "bytes1"
        },
        {
          "internalType": "string",
          "name": "name",
          "type": "string"
        },
        {
          "internalType": "string",
          "name": "version",
          "type": "string"
        },
        {
          "internalType": "uint256",
          "name": "chainId",
          "type": "uint256"
        },
        {
          "internalType": "address",
          "name": "verifyingContract",
          "type": "address"
        },
        {
          "internalType": "bytes32",
          "name": "salt",
          "type": "bytes32"
        },
        {
          "internalType": "uint256[]",
          "name": "extensions",
          "type": "uint256[]"
        }
      ],
      "stateMutability": "view",
      "type": "function"
    },
    {
      "inputs": [
        {
          "internalType": "address[]",
          "name": "targets",
          "type": "address[]"
        },
        {
          "internalType": "uint256[]",
          "name": "values",
          "type": "uint256[]"
        },
        {
          "internalType": "bytes[]",
          "name": "calldatas",
          "type": "bytes[]"
        },
        {
          "internalType": "bytes32",
          "name": "descriptionHash",
          "type": "bytes32"
        }
      ],
      "name": "execute",
      "outputs": [
        {
          "internalType": "uint256",
          "name": "",
          "type": "uint256"
        }
      ],
      "stateMutability": "payable",
      "type": "function"
    },
    {
      "inputs": [
        {
          "internalType": "address",
          "name": "account",
          "type": "address"
        },
        {
          "internalType": "uint256",
          "name": "timepoint",
          "type": "uint256"
        }
      ],
      "name": "getVotes",
      "outputs": [
        {
          "internalType": "uint256",
          "name": "",
          "type": "uint256"
        }
      ],
      "stateMutability": "view",
      "type": "function"
    },
    {
      "inputs": [
        {
          "internalType": "address",
          "name": "account",
          "type": "address"
        },
        {
          "internalType": "uint256",
          "name": "timepoint",
          "type": "uint256"
        },
        {
          "internalType": "bytes",
          "name": "params",
          "type": "bytes"
        }
      ],
      "name": "getVotesWithParams",
      "outputs": [
        {
          "internalType": "uint256",
          "name": "",
          "type": "uint256"
        }
      ],
      "stateMutability": "view",
      "type": "function"
    },
    {
      "inputs": [
        {
          "internalType": "uint256",
          "name": "proposalId",
          "type": "uint256"
        },
        {
          "internalType": "address",
          "name": "account",
          "type": "address"
        }
      ],
      "name": "hasVoted",
      "outputs": [
        {
          "internalType": "bool",
          "name": "",
          "type": "bool"
        }
      ],
      "stateMutability": "view",
      "type": "function"
    },
    {
      "inputs": [
        {
          "internalType": "address[]",
          "name": "targets",
          "type": "address[]"
        },
        {
          "internalType": "uint256[]",
          "name": "values",
          "type": "uint256[]"
        },
        {
          "internalType": "bytes[]",
          "name": "calldatas",
          "type": "bytes[]"
        },
        {
          "internalType": "bytes32",
          "name": "descriptionHash",
          "type": "bytes32"
        }
      ],
      "name": "hashProposal",
      "outputs": [
        {
          "internalType": "uint256",
          "name": "",
          "type": "uint256"
        }
      ],
      "stateMutability": "pure",
      "type": "function"
    },
    {
      "inputs": [],
      "name": "name",
      "outputs": [
        {
          "internalType": "string",
          "name": "",
          "type": "string"
        }
      ],
      "stateMutability": "view",
      "type": "function"
    },
    {
      "inputs": [
        {
          "internalType": "address",
          "name": "owner",
          "type": "address"
        }
      ],
      "name": "nonces",
      "outputs": [
        {
          "internalType": "uint256",
          "name": "",
          "type": "uint256"
        }
      ],
      "stateMutability": "view",
      "type": "function"
    },
    {
      "inputs": [
        {
          "internalType": "address",
          "name": "",
          "type": "address"
        },
        {
          "internalType": "address",
          "name": "",
          "type": "address"
        },
        {
          "internalType": "uint256[]",
          "name": "",
          "type": "uint256[]"
        },
        {
          "internalType": "uint256[]",
          "name": "",
          "type": "uint256[]"
        },
        {
          "internalType": "bytes",
          "name": "",
          "type": "bytes"
        }
      ],
      "name": "onERC1155BatchReceived",
      "outputs": [
        {
          "internalType": "bytes4",
          "name": "",
          "type": "bytes4"
        }
      ],
      "stateMutability": "nonpayable",
      "type": "function"
    },
    {
      "inputs": [
        {
          "internalType": "address",
          "name": "",
          "type": "address"
        },
        {
          "internalType": "address",
          "name": "",
          "type": "address"
        },
        {
          "internalType": "uint256",
          "name": "",
          "type": "uint256"
        },
        {
          "internalType": "uint256",
          "name": "",
          "type": "uint256"
        },
        {
          "internalType": "bytes",
          "name": "",
          "type": "bytes"
        }
      ],
      "name": "onERC1155Received",
      "outputs": [
        {
          "internalType": "bytes4",
          "name": "",
          "type": "bytes4"
        }
      ],
      "stateMutability": "nonpayable",
      "type": "function"
    },
    {
      "inputs": [
        {
          "internalType": "address",
          "name": "",
          "type": "address"
        },
        {
          "internalType": "address",
          "name": "",
          "type": "address"
        },
        {
          "internalType": "uint256",
          "name": "",
          "type": "uint256"
        },
        {
          "internalType": "bytes",
          "name": "",
          "type": "bytes"
        }
      ],
      "name": "onERC721Received",
      "outputs": [
        {
          "internalType": "bytes4",
          "name": "",
          "type": "bytes4"
        }
      ],
      "stateMutability": "nonpayable",
      "type": "function"
    },
    {
      "inputs": [
        {
          "internalType": "uint256",
          "name": "proposalId",
          "type": "uint256"
        }
      ],
      "name": "proposalDeadline",
      "outputs": [
        {
          "internalType": "uint256",
          "name": "",
          "type": "uint256"
        }
      ],
      "stateMutability": "view",
      "type": "function"
    },
    {
      "inputs": [
        {
          "internalType": "uint256",
          "name": "proposalId",
          "type": "uint256"
        }
      ],
      "name": "proposalEta",
      "outputs": [
        {
          "internalType": "uint256",
          "name": "",
          "type": "uint256"
        }
      ],
      "stateMutability": "view",
      "type": "function"
    },
    {
      "inputs": [
        {
          "internalType": "uint256",
          "name": "proposalId",
          "type": "uint256"
        }
      ],
      "name": "proposalNeedsQueuing",
      "outputs": [
        {
          "internalType": "bool",
          "name": "",
          "type": "bool"
        }
      ],
      "stateMutability": "view",
      "type": "function"
    },
    {
      "inputs": [
        {
          "internalType": "uint256",
          "name": "proposalId",
          "type": "uint256"
        }
      ],
      "name": "proposalProposer",
      "outputs": [
        {
          "internalType": "address",
          "name": "",
          "type": "address"
        }
      ],
      "stateMutability": "view",
      "type": "function"
    },
    {
      "inputs": [
        {
          "internalType": "uint256",
          "name": "proposalId",
          "type": "uint256"
        }
      ],
      "name": "proposalSnapshot",
      "outputs": [
        {
          "internalType": "uint256",
          "name": "",
          "type": "uint256"
        }
      ],
      "stateMutability": "view",
      "type": "function"
    },
    {
      "inputs": [],
      "name": "proposalThreshold",
      "outputs": [
        {
          "internalType": "uint256",
          "name": "",
          "type": "uint256"
        }
      ],
      "stateMutability": "view",
      "type": "function"
    },
    {
      "inputs": [
        {
          "internalType": "uint256",
          "name": "proposalId",
          "type": "uint256"
        }
      ],
      "name": "proposalVotes",
      "outputs": [
        {
          "internalType": "uint256",
          "name": "againstVotes",
          "type": "uint256"
        },
        {
          "internalType": "uint256",
          "name": "forVotes",
          "type": "uint256"
        },
        {
          "internalType": "uint256",
          "name": "abstainVotes",
          "type": "uint256"
        }
      ],
      "stateMutability": "view",
      "type": "function"
    },
    {
      "inputs": [
        {
          "internalType": "address[]",
          "name": "targets",
          "type": "address[]"
        },
        {
          "internalType": "uint256[]",
          "name": "values",
          "type": "uint256[]"
        },
        {
          "internalType": "bytes[]",
          "name": "calldatas",
          "type": "bytes[]"
        },
        {
          "internalType": "string",
          "name": "description",
          "type": "string"
        }
      ],
      "name": "propose",
      "outputs": [
        {
          "internalType": "uint256",
          "name": "",
          "type": "uint256"
        }
      ],
      "stateMutability": "nonpayable",
      "type": "function"
    },
    {
      "inputs": [
        {
          "internalType": "address[]",
          "name": "targets",
          "type": "address[]"
        },
        {
          "internalType": "uint256[]",
          "name": "values",
          "type": "uint256[]"
        },
        {
          "internalType": "bytes[]",
          "name": "calldatas",
          "type": "bytes[]"
        },
        {
          "internalType": "bytes32",
          "name": "descriptionHash",
          "type": "bytes32"
        }
      ],
      "name": "queue",
      "outputs": [
        {
          "internalType": "uint256",
          "name": "",
          "type": "uint256"
        }
      ],
      "stateMutability": "nonpayable",
      "type": "function"
    },
    {
      "inputs": [
        {
          "internalType": "uint256",
          "name": "blockNumber",
          "type": "uint256"
        }
      ],
      "name": "quorum",
      "outputs": [
        {
          "internalType": "uint256",
          "name": "",
          "type": "uint256"
        }
      ],
      "stateMutability": "view",
      "type": "function"
    },
    {
      "inputs": [],
      "name": "quorumDenominator",
      "outputs": [
        {
          "internalType": "uint256",
          "name": "",
          "type": "uint256"
        }
      ],
      "stateMutability": "view",
      "type": "function"
    },
    {
      "inputs": [
        {
          "internalType": "uint256",
          "name": "timepoint",
          "type": "uint256"
        }
      ],
      "name": "quorumNumerator",
      "outputs": [
        {
          "internalType": "uint256",
          "name": "",
          "type": "uint256"
        }
      ],
      "stateMutability": "view",
      "type": "function"
    },
    {
      "inputs": [],
      "name": "quorumNumerator",
      "outputs": [
        {
          "internalType": "uint256",
          "name": "",
          "type": "uint256"
        }
      ],
      "stateMutability": "view",
      "type": "function"
    },
    {
      "inputs": [
        {
          "internalType": "address",
          "name": "target",
          "type": "address"
        },
        {
          "internalType": "uint256",
          "name": "value",
          "type": "uint256"
        },
        {
          "internalType": "bytes",
          "name": "data",
          "type": "bytes"
        }
      ],
      "name": "relay",
      "outputs": [],
      "stateMutability": "payable",
      "type": "function"
    },
    {
      "inputs": [
        {
          "internalType": "uint256",
          "name": "proposalId",
          "type": "uint256"
        }
      ],
      "name": "state",
      "outputs": [
        {
          "internalType": "enum IGovernor.ProposalState",
          "name": "",
          "type": "uint8"
        }
      ],
      "stateMutability": "view",
      "type": "function"
    },
    {
      "inputs": [
        {
          "internalType": "bytes4",
          "name": "interfaceId",
          "type": "bytes4"
        }
      ],
      "name": "supportsInterface",
      "outputs": [
        {
          "internalType": "bool",
          "name": "",
          "type": "bool"
        }
      ],
      "stateMutability": "view",
      "type": "function"
    },
    {
      "inputs": [],
      "name": "timelock",
      "outputs": [
        {
          "internalType": "address",
          "name": "",
          "type": "address"
        }
      ],
      "stateMutability": "view",
      "type": "function"
    },
    {
      "inputs": [],
      "name": "token",
      "outputs": [
        {
          "internalType": "contract IERC5805",
          "name": "",
          "type": "address"
        }
      ],
      "stateMutability": "view",
      "type": "function"
    },
    {
      "inputs": [
        {
          "internalType": "uint256",
          "name": "newQuorumNumerator",
          "type": "uint256"
        }
      ],
      "name": "updateQuorumNumerator",
      "outputs": [],
      "stateMutability": "nonpayable",
      "type": "function"
    },
    {
      "inputs": [
        {
          "internalType": "contract TimelockController",
          "name": "newTimelock",
          "type": "address"
        }
      ],
      "name": "updateTimelock",
      "outputs": [],
      "stateMutability": "nonpayable",
      "type": "function"
    },
    {
      "inputs": [],
      "name": "version",
      "outputs": [
        {
          "internalType": "string",
          "name": "",
          "type": "string"
        }
      ],
      "stateMutability": "view",
      "type": "function"
    },
    {
      "inputs": [],
      "name": "votingDelay",
      "outputs": [
        {
          "internalType": "uint256",
          "name": "",
          "type": "uint256"
        }
      ],
      "stateMutability": "pure",
      "type": "function"
    },
    {
      "inputs": [],
      "name": "votingPeriod",
      "outputs": [
        {
          "internalType": "uint256",
          "name": "",
          "type": "uint256"
        }
      ],
      "stateMutability": "pure",
      "type": "function"
    },
    {
      "stateMutability": "payable",
      "type": "receive"
    }
  ],
  "bytecode": "0x6101806040523480156200001257600080fd5b50604051620047fb380380620047fb833981016040819052620000359162000635565b806004836040518060400160405280600a81526020016926bca3b7bb32b93737b960b11b815250806200006d6200015f60201b60201c565b6200007a8260006200017a565b610120526200008b8160016200017a565b61014052815160208084019190912060e052815190820120610100524660a0526200011960e05161010051604080517f8b73c3c69bb8fe3d512ecc4cf759cc79239f7b179b0ffacaa9a75d522b39400f60208201529081019290925260608201524660808201523060a082015260009060c00160405160208183030381529060405280519060200120905090565b60805250503060c052600362000130828262000719565b50506001600160a01b0316610160526200014a81620001b3565b50620001568162000257565b505050620008a6565b6040805180820190915260018152603160f81b602082015290565b60006020835110156200019a576200019283620002c0565b9050620001ad565b81620001a7848262000719565b5060ff90505b92915050565b606480821115620001e65760405163243e544560e01b815260048101839052602481018290526044015b60405180910390fd5b6000620001f262000303565b905062000217620002026200031f565b6200020d85620003a1565b60089190620003db565b505060408051828152602081018590527f0553476bf02ef2726e8ce5ced78d63e26e602e4a2257b1f559418e24b4633997910160405180910390a1505050565b600954604080516001600160a01b03928316815291831660208301527f08f74ea46ef7894f65eabfb5e6e695de773a000b47c529ab559178069b226401910160405180910390a1600980546001600160a01b0319166001600160a01b0392909216919091179055565b600080829050601f81511115620002ee578260405163305a27a960e01b8152600401620001dd9190620007e5565b8051620002fb8262000835565b179392505050565b6000620003116008620003f8565b6001600160d01b0316905090565b60006200032c6101605190565b6001600160a01b03166391ddadf46040518163ffffffff1660e01b8152600401602060405180830381865afa92505050801562000388575060408051601f3d908101601f1916820190925262000385918101906200085a565b60015b6200039c576200039762000448565b905090565b919050565b60006001600160d01b03821115620003d7576040516306dfcc6560e41b815260d0600482015260248101839052604401620001dd565b5090565b600080620003eb85858562000455565b915091505b935093915050565b805460009080156200043e5762000424836200041660018462000884565b600091825260209091200190565b54660100000000000090046001600160d01b031662000441565b60005b9392505050565b60006200039743620005e7565b8254600090819080156200058857600062000477876200041660018562000884565b60408051808201909152905465ffffffffffff80821680845266010000000000009092046001600160d01b031660208401529192509087161015620004cf57604051632520601d60e01b815260040160405180910390fd5b805165ffffffffffff808816911603620005235784620004f6886200041660018662000884565b80546001600160d01b039290921666010000000000000265ffffffffffff90921691909117905562000577565b6040805180820190915265ffffffffffff80881682526001600160d01b0380881660208085019182528b54600181018d5560008d815291909120945191519092166601000000000000029216919091179101555b602001519250839150620003f09050565b50506040805180820190915265ffffffffffff80851682526001600160d01b0380851660208085019182528854600181018a5560008a8152918220955192519093166601000000000000029190931617920191909155905081620003f0565b600065ffffffffffff821115620003d7576040516306dfcc6560e41b81526030600482015260248101839052604401620001dd565b6001600160a01b03811681146200063257600080fd5b50565b600080604083850312156200064957600080fd5b825162000656816200061c565b602084015190925062000669816200061c565b809150509250929050565b634e487b7160e01b600052604160045260246000fd5b600181811c908216806200069f57607f821691505b602082108103620006c057634e487b7160e01b600052602260045260246000fd5b50919050565b601f8211156200071457600081815260208120601f850160051c81016020861015620006ef5750805b601f850160051c820191505b818110156200071057828155600101620006fb565b5050505b505050565b81516001600160401b0381111562000735576200073562000674565b6200074d816200074684546200068a565b84620006c6565b602080601f8311600181146200078557600084156200076c5750858301515b600019600386901b1c1916600185901b17855562000710565b600085815260208120601f198616915b82811015620007b65788860151825594840194600190910190840162000795565b5085821015620007d55787850151600019600388901b60f8161c191681555b5050505050600190811b01905550565b600060208083528351808285015260005b818110156200081457858101830151858201604001528201620007f6565b506000604082860101526040601f19601f8301168501019250505092915050565b80516020808301519190811015620006c05760001960209190910360031b1b16919050565b6000602082840312156200086d57600080fd5b815165ffffffffffff811681146200044157600080fd5b81810381811115620001ad57634e487b7160e01b600052601160045260246000fd5b60805160a05160c05160e05161010051610120516101405161016051613eef6200090c60003960006113a001526000611cc901526000611c9c0152600061244a015260006124220152600061237d015260006123a7015260006123d10152613eef6000f3fe6080604052600436106102065760003560e01c806301ffc9a71461024257806302a251a31461027757806306f3f9e61461029557806306fdde03146102b5578063143489d0146102d7578063150b7a0214610304578063160cbed71461033d5780632656227d1461035d5780632d63f693146103705780632fe3e261146103905780633932abb1146102775780633e4f49e6146103b257806343859632146103df578063452115d6146104295780634bf5d7e914610449578063544ffc9c1461045e57806354fd4d50146104a757806356781388146104d15780635b8d0e0d146104f15780635f398a141461051157806360c4247f146105315780637b3c71d3146105515780637d5e81e2146105715780637ecebe001461059157806384b0196e146105c75780638ff262e3146105ef57806391ddadf41461060f57806397c3d334146102775780639a802a6d1461063b578063a7713a701461065b578063a890c91014610670578063a9a9529414610690578063ab58fb8e146106b0578063b58131b0146106d0578063bc197c81146106e4578063c01f9e3714610704578063c28bc2fa14610724578063c59057e414610737578063d33219b414610757578063dd4e2ba51461076c578063deaaa7cc146107b2578063eb9019d4146107d4578063f23a6e61146107f4578063f8ce560a14610814578063fc0c546a1461083457600080fd5b3661023d5730610214610849565b6001600160a01b03161461023b57604051637485328f60e11b815260040160405180910390fd5b005b600080fd5b34801561024e57600080fd5b5061026261025d366004612dfc565b610858565b60405190151581526020015b60405180910390f35b34801561028357600080fd5b5060645b60405190815260200161026e565b3480156102a157600080fd5b5061023b6102b0366004612e26565b6108aa565b3480156102c157600080fd5b506102ca6108be565b60405161026e9190612e8f565b3480156102e357600080fd5b506102f76102f2366004612e26565b610950565b60405161026e9190612ea2565b34801561031057600080fd5b5061032461031f366004612f96565b61096b565b6040516001600160e01b0319909116815260200161026e565b34801561034957600080fd5b5061028761035836600461316d565b6109ae565b61028761036b36600461316d565b610a7d565b34801561037c57600080fd5b5061028761038b366004612e26565b610bf1565b34801561039c57600080fd5b50610287600080516020613e9a83398151915281565b3480156103be57600080fd5b506103d26103cd366004612e26565b610c12565b60405161026e9190613234565b3480156103eb57600080fd5b506102626103fa366004613242565b60008281526007602090815260408083206001600160a01b038516845260030190915290205460ff1692915050565b34801561043557600080fd5b5061028761044436600461316d565b610c1d565b34801561045557600080fd5b506102ca610c98565b34801561046a57600080fd5b50610498610479366004612e26565b6000908152600760205260409020805460018201546002909201549092565b60405161026e93929190613272565b3480156104b357600080fd5b506040805180820190915260018152603160f81b60208201526102ca565b3480156104dd57600080fd5b506102876104ec366004613299565b610d41565b3480156104fd57600080fd5b5061028761050c36600461330d565b610d6a565b34801561051d57600080fd5b5061028761052c3660046133c7565b610e90565b34801561053d57600080fd5b5061028761054c366004612e26565b610ee5565b34801561055d57600080fd5b5061028761056c36600461344a565b610f73565b34801561057d57600080fd5b5061028761058c3660046134a3565b610fbb565b34801561059d57600080fd5b506102876105ac366004613557565b6001600160a01b031660009081526002602052604090205490565b3480156105d357600080fd5b506105dc61102b565b60405161026e97969594939291906135af565b3480156105fb57600080fd5b5061028761060a36600461361f565b611071565b34801561061b57600080fd5b5061062461110a565b60405165ffffffffffff909116815260200161026e565b34801561064757600080fd5b50610287610656366004613670565b611179565b34801561066757600080fd5b50610287611186565b34801561067c57600080fd5b5061023b61068b366004613557565b6111a0565b34801561069c57600080fd5b506102626106ab366004612e26565b6111b1565b3480156106bc57600080fd5b506102876106cb366004612e26565b6111ba565b3480156106dc57600080fd5b506000610287565b3480156106f057600080fd5b506103246106ff3660046136c8565b6111d7565b34801561071057600080fd5b5061028761071f366004612e26565b61121b565b61023b61073236600461375b565b61125e565b34801561074357600080fd5b5061028761075236600461316d565b6112de565b34801561076357600080fd5b506102f7611318565b34801561077857600080fd5b506040805180820190915260208082527f737570706f72743d627261766f2671756f72756d3d666f722c6162737461696e908201526102ca565b3480156107be57600080fd5b50610287600080516020613e7a83398151915281565b3480156107e057600080fd5b506102876107ef36600461379e565b611327565b34801561080057600080fd5b5061032461080f3660046137ca565b61134f565b34801561082057600080fd5b5061028761082f366004612e26565b611393565b34801561084057600080fd5b506102f761139e565b6000610853611318565b905090565b60006001600160e01b031982166332a2ad4360e11b148061088957506001600160e01b03198216630271189760e51b145b806108a457506301ffc9a760e01b6001600160e01b03198316145b92915050565b6108b26113c2565b6108bb8161143c565b50565b6060600380546108cd90613832565b80601f01602080910402602001604051908101604052809291908181526020018280546108f990613832565b80156109465780601f1061091b57610100808354040283529160200191610946565b820191906000526020600020905b81548152906001019060200180831161092957829003601f168201915b5050505050905090565b6000908152600460205260409020546001600160a01b031690565b600030610976610849565b6001600160a01b03161461099d57604051637485328f60e11b815260040160405180910390fd5b50630a85bd0160e11b949350505050565b6000806109bd868686866112de565b90506109d2816109cd60046114d2565b6114f5565b5060006109e28288888888611534565b905065ffffffffffff811615610a5a57600082815260046020908152604091829020600101805465ffffffffffff191665ffffffffffff85169081179091558251858152918201527f9a2e42fd6722813d69113e7d0079d3d940171428df7373df9c7f7617cfda2892910160405180910390a1610a73565b604051634844252360e11b815260040160405180910390fd5b5095945050505050565b600080610a8c868686866112de565b9050610aac81610a9c60056114d2565b610aa660046114d2565b176114f5565b506000818152600460205260409020805460ff60f01b1916600160f01b17905530610ad5610849565b6001600160a01b031614610b675760005b8651811015610b6557306001600160a01b0316878281518110610b0b57610b0b61386c565b60200260200101516001600160a01b031603610b5557610b55858281518110610b3657610b3661386c565b602002602001015180519060200120600561154390919063ffffffff16565b610b5e81613898565b9050610ae6565b505b610b7481878787876115b4565b30610b7d610849565b6001600160a01b031614158015610ba957506005546001600160801b03808216600160801b9092041614155b15610bb45760006005555b6040518181527f712ae1383f79ac853f8d882153778e0260ef8f03b504e2866e0593e04d2b291f906020015b60405180910390a195945050505050565b600090815260046020526040902054600160a01b900465ffffffffffff1690565b60006108a4826115c8565b600080610c2c868686866112de565b9050610c3c816109cd60006114d2565b50610c4681610950565b6001600160a01b0316336001600160a01b031614610c82573360405163233d98e360e01b8152600401610c799190612ea2565b60405180910390fd5b610c8e86868686611707565b9695505050505050565b6060610ca261139e565b6001600160a01b0316634bf5d7e96040518163ffffffff1660e01b8152600401600060405180830381865afa925050508015610d0057506040513d6000823e601f3d908101601f19168201604052610cfd91908101906138b1565b60015b610d3c575060408051808201909152601d81527f6d6f64653d626c6f636b6e756d6265722666726f6d3d64656661756c74000000602082015290565b919050565b600080339050610d628482856040518060200160405280600081525061171e565b949350505050565b600080610e1d87610e17600080516020613e9a8339815191528c8c8c610d8f8e611741565b8d8d604051610d9f92919061391e565b60405180910390208c80519060200120604051602001610dfc9796959493929190968752602087019590955260ff9390931660408601526001600160a01b03919091166060850152608084015260a083015260c082015260e00190565b60405160208183030381529060405280519060200120611764565b85611791565b905080610e3f57866040516394ab6c0760e01b8152600401610c799190612ea2565b610e8389888a89898080601f0160208091040260200160405190810160405280939291908181526020018383808284376000920191909152508b92506117e9915050565b9998505050505050505050565b600080339050610eda87828888888080601f0160208091040260200160405190810160405280939291908181526020018383808284376000920191909152508a92506117e9915050565b979650505050505050565b600880546000918290610ef960018461392e565b81548110610f0957610f0961386c565b6000918252602090912001805490915065ffffffffffff811690600160301b90046001600160d01b0316858211610f4c576001600160d01b031695945050505050565b610f60610f58876118c6565b6008906118f8565b6001600160d01b03169695505050505050565b600080339050610c8e86828787878080601f01602080910402602001604051908101604052809392919081815260200183838082843760009201919091525061171e92505050565b600033610fc881846119ad565b610fe7578060405163d9b3955760e01b8152600401610c799190612ea2565b600061100e826001610ff761110a565b6110019190613941565b65ffffffffffff16611327565b9050600061101f8888888887611a9e565b98975050505050505050565b60006060806000806000606061103f611c95565b611047611cc2565b60408051600080825260208201909252600f60f81b9b939a50919850469750309650945092509050565b6000806110cd84610e17600080516020613e7a8339815191528989896110968b611741565b60408051602081019690965285019390935260ff90911660608401526001600160a01b0316608083015260a082015260c001610dfc565b9050806110ef57836040516394ab6c0760e01b8152600401610c799190612ea2565b610c8e8685876040518060200160405280600081525061171e565b600061111461139e565b6001600160a01b03166391ddadf46040518163ffffffff1660e01b8152600401602060405180830381865afa92505050801561116d575060408051601f3d908101601f1916820190925261116a91810190613967565b60015b610d3c57610853611cef565b6000610d62848484611cfa565b60006111926008611d77565b6001600160d01b0316905090565b6111a86113c2565b6108bb81611db0565b600060016108a4565b60009081526004602052604090206001015465ffffffffffff1690565b6000306111e2610849565b6001600160a01b03161461120957604051637485328f60e11b815260040160405180910390fd5b5063bc197c8160e01b95945050505050565b60008181526004602052604081205461125090600160d01b810463ffffffff1690600160a01b900465ffffffffffff1661398f565b65ffffffffffff1692915050565b6112666113c2565b600080856001600160a01b031685858560405161128492919061391e565b60006040518083038185875af1925050503d80600081146112c1576040519150601f19603f3d011682016040523d82523d6000602084013e6112c6565b606091505b50915091506112d58282611e19565b50505050505050565b6000848484846040516020016112f79493929190613a3c565b60408051601f19818403018152919052805160209091012095945050505050565b6009546001600160a01b031690565b6000611348838361134360408051602081019091526000815290565b611cfa565b9392505050565b60003061135a610849565b6001600160a01b03161461138157604051637485328f60e11b815260040160405180910390fd5b5063f23a6e6160e01b95945050505050565b60006108a482611e35565b7f000000000000000000000000000000000000000000000000000000000000000090565b336113cb610849565b6001600160a01b0316146113f457336040516347096e4760e01b8152600401610c799190612ea2565b306113fd610849565b6001600160a01b03161461143a576000803660405161141d92919061391e565b604051809103902090505b806114336005611ecc565b0361142857505b565b6064808211156114695760405163243e544560e01b81526004810183905260248101829052604401610c79565b6000611473611186565b905061149261148061110a565b61148985611f41565b60089190611f70565b505060408051828152602081018590527f0553476bf02ef2726e8ce5ced78d63e26e602e4a2257b1f559418e24b4633997910160405180910390a1505050565b60008160078111156114e6576114e66131fc565b600160ff919091161b92915050565b60008061150184610c12565b905060008361150f836114d2565b1603611348578381846040516331b75e4d60e01b8152600401610c7993929190613a87565b6000610c8e8686868686611f8b565b81546001600160801b03600160801b82048116918116600183019091160361157e57604051638acb5f2760e01b815260040160405180910390fd5b6001600160801b03808216600090815260018086016020526040909120939093558354919092018216600160801b029116179055565b6115c1858585858561211e565b5050505050565b6000806115d4836121a8565b905060058160078111156115ea576115ea6131fc565b146115f55792915050565b6000838152600a602052604090819020546009549151632c258a9f60e11b81526004810182905290916001600160a01b03169063584b153e90602401602060405180830381865afa15801561164e573d6000803e3d6000fd5b505050506040513d601f19601f820116820180604052508101906116729190613aa9565b15611681575060059392505050565b600954604051632ab0f52960e01b8152600481018390526001600160a01b0390911690632ab0f52990602401602060405180830381865afa1580156116ca573d6000803e3d6000fd5b505050506040513d601f19601f820116820180604052508101906116ee9190613aa9565b156116fd575060079392505050565b5060029392505050565b6000611715858585856122d1565b95945050505050565b60006117158585858561173c60408051602081019091526000815290565b6117e9565b6001600160a01b0316600090815260026020526040902080546001810190915590565b60006108a4611771612370565b8360405161190160f01b8152600281019290925260228201526042902090565b60008060006117a0858561249b565b50909250905060008160038111156117ba576117ba6131fc565b1480156117d85750856001600160a01b0316826001600160a01b0316145b80610c8e5750610c8e8686866124e8565b60006117f9866109cd60016114d2565b50600061180f8661180989610bf1565b85611cfa565b905061181e87878784876125c3565b825160000361187357856001600160a01b03167fb8e138887d0aa13bab447e82de9d5c1777041ecd21ca36ba824ff1e6c07ddda4888784886040516118669493929190613acb565b60405180910390a2610c8e565b856001600160a01b03167fe2babfbac5889a709b63bb7f598b324e08bc5a4fb9ec647fb3cbc9ec07eb871288878488886040516118b4959493929190613af3565b60405180910390a29695505050505050565b600065ffffffffffff8211156118f4576030826040516306dfcc6560e41b8152600401610c79929190613b2d565b5090565b815460009081816005811115611957576000611913846126bb565b61191d908561392e565b60008881526020902090915081015465ffffffffffff908116908716101561194757809150611955565b611952816001613b40565b92505b505b6000611965878785856127a3565b905080156119a05761198a8761197c60018461392e565b600091825260209091200190565b54600160301b90046001600160d01b0316610eda565b6000979650505050505050565b805160009060348110156119c55760019150506108a4565b82810160131901516001600160a01b031981166b046e0e4dee0dee6cae47a60f60a31b146119f8576001925050506108a4565b600080611a0660288561392e565b90505b83811015611a7d57600080611a3d888481518110611a2957611a2961386c565b01602001516001600160f81b031916612805565b9150915081611a5557600196505050505050506108a4565b8060ff166004856001600160a01b0316901b179350505080611a7690613898565b9050611a09565b50856001600160a01b0316816001600160a01b031614935050505092915050565b6000611ab386868686805190602001206112de565b905084518651141580611ac857508351865114155b80611ad257508551155b15611af957855184518651604051630447b05d60e41b8152600401610c7993929190613272565b600081815260046020526040902054600160a01b900465ffffffffffff1615611b445780611b2682610c12565b6040516331b75e4d60e01b8152610c79929190600090600401613a87565b60006064611b5061110a565b65ffffffffffff16611b629190613b40565b905060006064600084815260046020526040902080546001600160a01b0319166001600160a01b038716178155909150611b9b836118c6565b815465ffffffffffff91909116600160a01b0265ffffffffffff60a01b19909116178155611bc882612897565b815463ffffffff91909116600160d01b0263ffffffff60d01b1990911617815588517f7d84a6263ae0d98d3329bd7b46bb4e8d6f98cd35a7adb45c274c8b7fd5ebd5e090859087908c908c906001600160401b03811115611c2b57611c2b612ecb565b604051908082528060200260200182016040528015611c5e57816020015b6060815260200190600190039081611c495790505b508c89611c6b8a82613b40565b8e604051611c8199989796959493929190613b53565b60405180910390a150505095945050505050565b60606108537f000000000000000000000000000000000000000000000000000000000000000060006128c3565b60606108537f000000000000000000000000000000000000000000000000000000000000000060016128c3565b6000610853436118c6565b6000611d0461139e565b604051630748d63560e31b81526001600160a01b038681166004830152602482018690529190911690633a46b1a890604401602060405180830381865afa158015611d53573d6000803e3d6000fd5b505050506040513d601f19601f82011682018060405250810190610d629190613c2a565b80546000908015611da757611d918361197c60018461392e565b54600160301b90046001600160d01b0316611348565b60009392505050565b600954604080516001600160a01b03928316815291831660208301527f08f74ea46ef7894f65eabfb5e6e695de773a000b47c529ab559178069b226401910160405180910390a1600980546001600160a01b0319166001600160a01b0392909216919091179055565b606082611e2e57611e298261296e565b6108a4565b50806108a4565b60006064611e4283610ee5565b611e4a61139e565b6001600160a01b0316638e539e8c856040518263ffffffff1660e01b8152600401611e7791815260200190565b602060405180830381865afa158015611e94573d6000803e3d6000fd5b505050506040513d601f19601f82011682018060405250810190611eb89190613c2a565b611ec29190613c43565b6108a49190613c70565b80546000906001600160801b0380821691600160801b9004168103611f04576040516375e52f4f60e01b815260040160405180910390fd5b6001600160801b038181166000908152600185810160205260408220805492905585546001600160801b0319169301909116919091179092555090565b60006001600160d01b038211156118f45760d0826040516306dfcc6560e41b8152600401610c79929190613b2d565b600080611f7e858585612997565b915091505b935093915050565b600080600960009054906101000a90046001600160a01b03166001600160a01b031663f27a0c926040518163ffffffff1660e01b8152600401602060405180830381865afa158015611fe1573d6000803e3d6000fd5b505050506040513d601f19601f820116820180604052508101906120059190613c2a565b9050600061201284612b11565b60095460405163b1c5f42760e01b81529192506001600160a01b03169063b1c5f4279061204c908a908a908a906000908890600401613c92565b602060405180830381865afa158015612069573d6000803e3d6000fd5b505050506040513d601f19601f8201168201806040525081019061208d9190613c2a565b6000898152600a60205260408082209290925560095491516308f2a0bb60e41b81526001600160a01b0390921691638f2a0bb0916120d8918b918b918b919088908a90600401613ce0565b600060405180830381600087803b1580156120f257600080fd5b505af1158015612106573d6000803e3d6000fd5b5050505061101f82426121199190613b40565b6118c6565b6009546001600160a01b031663e38335e534868686600061213e88612b11565b6040518763ffffffff1660e01b815260040161215e959493929190613c92565b6000604051808303818588803b15801561217757600080fd5b505af115801561218b573d6000803e3d6000fd5b50505060009687525050600a602052505060408320929092555050565b6000818152600460205260408120805460ff600160f01b8204811691600160f81b90041681156121dd57506007949350505050565b80156121ee57506002949350505050565b60006121f986610bf1565b90508060000361221f57604051636ad0607560e01b815260048101879052602401610c79565b600061222961110a565b65ffffffffffff169050808210612247575060009695505050505050565b60006122528861121b565b905081811061226957506001979650505050505050565b61227288612b23565b158061229257506000888152600760205260409020805460019091015411155b156122a557506003979650505050505050565b6122ae886111ba565b6000036122c357506004979650505050505050565b506005979650505050505050565b6000806122e086868686612b5a565b6000818152600a60205260409020549091508015610a735760095460405163c4d252f560e01b8152600481018390526001600160a01b039091169063c4d252f590602401600060405180830381600087803b15801561233e57600080fd5b505af1158015612352573d6000803e3d6000fd5b5050506000838152600a602052604081205550509050949350505050565b6000306001600160a01b037f0000000000000000000000000000000000000000000000000000000000000000161480156123c957507f000000000000000000000000000000000000000000000000000000000000000046145b156123f357507f000000000000000000000000000000000000000000000000000000000000000090565b610853604080517f8b73c3c69bb8fe3d512ecc4cf759cc79239f7b179b0ffacaa9a75d522b39400f60208201527f0000000000000000000000000000000000000000000000000000000000000000918101919091527f000000000000000000000000000000000000000000000000000000000000000060608201524660808201523060a082015260009060c00160405160208183030381529060405280519060200120905090565b600080600083516041036124d55760208401516040850151606086015160001a6124c788828585612c0b565b9550955095505050506124e1565b50508151600091506002905b9250925092565b6000806000856001600160a01b0316858560405160240161250a929190613d38565b60408051601f198184030181529181526020820180516001600160e01b0316630b135d3f60e11b1790525161253f9190613d51565b600060405180830381855afa9150503d806000811461257a576040519150601f19603f3d011682016040523d82523d6000602084013e61257f565b606091505b509150915081801561259357506020815110155b8015610c8e57508051630b135d3f60e11b906125b89083016020908101908401613c2a565b149695505050505050565b60008581526007602090815260408083206001600160a01b0388168452600381019092529091205460ff161561260e57846040516371c6af4960e01b8152600401610c799190612ea2565b6001600160a01b03851660009081526003820160205260409020805460ff1916600117905560ff841661265a578281600001600082825461264f9190613b40565b909155506126b39050565b60001960ff85160161267a578281600101600082825461264f9190613b40565b60011960ff85160161269a578281600201600082825461264f9190613b40565b6040516303599be160e11b815260040160405180910390fd5b505050505050565b6000816000036126cd57506000919050565b600060016126da84612cd0565b901c6001901b905060018184816126f3576126f3613c5a565b048201901c9050600181848161270b5761270b613c5a565b048201901c9050600181848161272357612723613c5a565b048201901c9050600181848161273b5761273b613c5a565b048201901c9050600181848161275357612753613c5a565b048201901c9050600181848161276b5761276b613c5a565b048201901c9050600181848161278357612783613c5a565b048201901c90506113488182858161279d5761279d613c5a565b04612d64565b60005b818310156127fd5760006127ba8484612d7a565b60008781526020902090915065ffffffffffff86169082015465ffffffffffff1611156127e9578092506127f7565b6127f4816001613b40565b93505b506127a6565b509392505050565b60008060f883901c602f811180156128205750603a8160ff16105b1561283557600194602f199091019350915050565b8060ff16604010801561284b575060478160ff16105b15612860576001946036199091019350915050565b8060ff166060108015612876575060678160ff16105b1561288b576001946056199091019350915050565b50600093849350915050565b600063ffffffff8211156118f4576020826040516306dfcc6560e41b8152600401610c79929190613b2d565b606060ff83146128dd576128d683612d95565b90506108a4565b8180546128e990613832565b80601f016020809104026020016040519081016040528092919081815260200182805461291590613832565b80156129625780601f1061293757610100808354040283529160200191612962565b820191906000526020600020905b81548152906001019060200180831161294557829003601f168201915b505050505090506108a4565b80511561297e5780518082602001fd5b604051630a12f52160e11b815260040160405180910390fd5b825460009081908015612ab65760006129b58761197c60018561392e565b60408051808201909152905465ffffffffffff808216808452600160301b9092046001600160d01b031660208401529192509087161015612a0957604051632520601d60e01b815260040160405180910390fd5b805165ffffffffffff808816911603612a555784612a2c8861197c60018661392e565b80546001600160d01b0392909216600160301b0265ffffffffffff909216919091179055612aa6565b6040805180820190915265ffffffffffff80881682526001600160d01b0380881660208085019182528b54600181018d5560008d81529190912094519151909216600160301b029216919091179101555b602001519250839150611f839050565b50506040805180820190915265ffffffffffff80851682526001600160d01b0380851660208085019182528854600181018a5560008a815291822095519251909316600160301b029190931617920191909155905081611f83565b6001600160601b03193060601b161890565b600081815260076020526040812060028101546001820154612b459190613b40565b612b5161082f85610bf1565b11159392505050565b600080612b69868686866112de565b9050612bb781612b7960076114d2565b612b8360066114d2565b612b8d60026114d2565b6001612b9a600782613d6d565b612ba5906002613e6a565b612baf919061392e565b1818186114f5565b506000818152600460205260409081902080546001600160f81b0316600160f81b179055517f789cf55be980739dad1d0699b93b58e806b51c9d96619bfa8fe0a28abaa7b30c90610be09083815260200190565b600080806fa2a8918ca85bafe22016d0b997e4df60600160ff1b03841115612c3c5750600091506003905082612cc6565b604080516000808252602082018084528a905260ff891692820192909252606081018790526080810186905260019060a0016020604051602081039080840390855afa158015612c90573d6000803e3d6000fd5b5050604051601f1901519150506001600160a01b038116612cbc57506000925060019150829050612cc6565b9250600091508190505b9450945094915050565b600080608083901c15612ce557608092831c92015b604083901c15612cf757604092831c92015b602083901c15612d0957602092831c92015b601083901c15612d1b57601092831c92015b600883901c15612d2d57600892831c92015b600483901c15612d3f57600492831c92015b600283901c15612d5157600292831c92015b600183901c156108a45760010192915050565b6000818310612d735781611348565b5090919050565b6000612d896002848418613c70565b61134890848416613b40565b60606000612da283612dd4565b604080516020808252818301909252919250600091906020820181803683375050509182525060208101929092525090565b600060ff8216601f8111156108a457604051632cd44ac360e21b815260040160405180910390fd5b600060208284031215612e0e57600080fd5b81356001600160e01b03198116811461134857600080fd5b600060208284031215612e3857600080fd5b5035919050565b60005b83811015612e5a578181015183820152602001612e42565b50506000910152565b60008151808452612e7b816020860160208601612e3f565b601f01601f19169290920160200192915050565b6020815260006113486020830184612e63565b6001600160a01b0391909116815260200190565b6001600160a01b03811681146108bb57600080fd5b634e487b7160e01b600052604160045260246000fd5b604051601f8201601f191681016001600160401b0381118282101715612f0957612f09612ecb565b604052919050565b60006001600160401b03821115612f2a57612f2a612ecb565b50601f01601f191660200190565b6000612f4b612f4684612f11565b612ee1565b9050828152838383011115612f5f57600080fd5b828260208301376000602084830101529392505050565b600082601f830112612f8757600080fd5b61134883833560208501612f38565b60008060008060808587031215612fac57600080fd5b8435612fb781612eb6565b93506020850135612fc781612eb6565b92506040850135915060608501356001600160401b03811115612fe957600080fd5b612ff587828801612f76565b91505092959194509250565b60006001600160401b0382111561301a5761301a612ecb565b5060051b60200190565b600082601f83011261303557600080fd5b81356020613045612f4683613001565b82815260059290921b8401810191818101908684111561306457600080fd5b8286015b8481101561308857803561307b81612eb6565b8352918301918301613068565b509695505050505050565b600082601f8301126130a457600080fd5b813560206130b4612f4683613001565b82815260059290921b840181019181810190868411156130d357600080fd5b8286015b8481101561308857803583529183019183016130d7565b600082601f8301126130ff57600080fd5b8135602061310f612f4683613001565b82815260059290921b8401810191818101908684111561312e57600080fd5b8286015b848110156130885780356001600160401b038111156131515760008081fd5b61315f8986838b0101612f76565b845250918301918301613132565b6000806000806080858703121561318357600080fd5b84356001600160401b038082111561319a57600080fd5b6131a688838901613024565b955060208701359150808211156131bc57600080fd5b6131c888838901613093565b945060408701359150808211156131de57600080fd5b506131eb878288016130ee565b949793965093946060013593505050565b634e487b7160e01b600052602160045260246000fd5b6008811061323057634e487b7160e01b600052602160045260246000fd5b9052565b602081016108a48284613212565b6000806040838503121561325557600080fd5b82359150602083013561326781612eb6565b809150509250929050565b9283526020830191909152604082015260600190565b803560ff81168114610d3c57600080fd5b600080604083850312156132ac57600080fd5b823591506132bc60208401613288565b90509250929050565b60008083601f8401126132d757600080fd5b5081356001600160401b038111156132ee57600080fd5b60208301915083602082850101111561330657600080fd5b9250929050565b600080600080600080600060c0888a03121561332857600080fd5b8735965061333860208901613288565b9550604088013561334881612eb6565b945060608801356001600160401b038082111561336457600080fd5b6133708b838c016132c5565b909650945060808a013591508082111561338957600080fd5b6133958b838c01612f76565b935060a08a01359150808211156133ab57600080fd5b506133b88a828b01612f76565b91505092959891949750929550565b6000806000806000608086880312156133df57600080fd5b853594506133ef60208701613288565b935060408601356001600160401b038082111561340b57600080fd5b61341789838a016132c5565b9095509350606088013591508082111561343057600080fd5b5061343d88828901612f76565b9150509295509295909350565b6000806000806060858703121561346057600080fd5b8435935061347060208601613288565b925060408501356001600160401b0381111561348b57600080fd5b613497878288016132c5565b95989497509550505050565b600080600080608085870312156134b957600080fd5b84356001600160401b03808211156134d057600080fd5b6134dc88838901613024565b955060208701359150808211156134f257600080fd5b6134fe88838901613093565b9450604087013591508082111561351457600080fd5b613520888389016130ee565b9350606087013591508082111561353657600080fd5b508501601f8101871361354857600080fd5b612ff587823560208401612f38565b60006020828403121561356957600080fd5b813561134881612eb6565b600081518084526020808501945080840160005b838110156135a457815187529582019590820190600101613588565b509495945050505050565b60ff60f81b8816815260e0602082015260006135ce60e0830189612e63565b82810360408401526135e08189612e63565b606084018890526001600160a01b038716608085015260a0840186905283810360c085015290506136118185613574565b9a9950505050505050505050565b6000806000806080858703121561363557600080fd5b8435935061364560208601613288565b9250604085013561365581612eb6565b915060608501356001600160401b03811115612fe957600080fd5b60008060006060848603121561368557600080fd5b833561369081612eb6565b92506020840135915060408401356001600160401b038111156136b257600080fd5b6136be86828701612f76565b9150509250925092565b600080600080600060a086880312156136e057600080fd5b85356136eb81612eb6565b945060208601356136fb81612eb6565b935060408601356001600160401b038082111561371757600080fd5b61372389838a01613093565b9450606088013591508082111561373957600080fd5b61374589838a01613093565b9350608088013591508082111561343057600080fd5b6000806000806060858703121561377157600080fd5b843561377c81612eb6565b93506020850135925060408501356001600160401b0381111561348b57600080fd5b600080604083850312156137b157600080fd5b82356137bc81612eb6565b946020939093013593505050565b600080600080600060a086880312156137e257600080fd5b85356137ed81612eb6565b945060208601356137fd81612eb6565b9350604086013592506060860135915060808601356001600160401b0381111561382657600080fd5b61343d88828901612f76565b600181811c9082168061384657607f821691505b60208210810361386657634e487b7160e01b600052602260045260246000fd5b50919050565b634e487b7160e01b600052603260045260246000fd5b634e487b7160e01b600052601160045260246000fd5b6000600182016138aa576138aa613882565b5060010190565b6000602082840312156138c357600080fd5b81516001600160401b038111156138d957600080fd5b8201601f810184136138ea57600080fd5b80516138f8612f4682612f11565b81815285602083850101111561390d57600080fd5b611715826020830160208601612e3f565b8183823760009101908152919050565b818103818111156108a4576108a4613882565b65ffffffffffff82811682821603908082111561396057613960613882565b5092915050565b60006020828403121561397957600080fd5b815165ffffffffffff8116811461134857600080fd5b65ffffffffffff81811683821601908082111561396057613960613882565b600081518084526020808501945080840160005b838110156135a45781516001600160a01b0316875295820195908201906001016139c2565b600081518084526020808501808196508360051b8101915082860160005b85811015613a2f578284038952613a1d848351612e63565b98850198935090840190600101613a05565b5091979650505050505050565b608081526000613a4f60808301876139ae565b8281036020840152613a618187613574565b90508281036040840152613a7581866139e7565b91505082606083015295945050505050565b83815260608101613a9b6020830185613212565b826040830152949350505050565b600060208284031215613abb57600080fd5b8151801515811461134857600080fd5b84815260ff84166020820152826040820152608060608201526000610c8e6080830184612e63565b85815260ff8516602082015283604082015260a060608201526000613b1b60a0830185612e63565b828103608084015261101f8185612e63565b60ff929092168252602082015260400190565b808201808211156108a4576108a4613882565b60006101208b8352602060018060a01b038c1681850152816040850152613b7c8285018c6139ae565b91508382036060850152613b90828b613574565b915083820360808501528189518084528284019150828160051b850101838c0160005b83811015613be157601f19878403018552613bcf838351612e63565b94860194925090850190600101613bb3565b505086810360a0880152613bf5818c6139e7565b9450505050508560c08401528460e0840152828103610100840152613c1a8185612e63565b9c9b505050505050505050505050565b600060208284031215613c3c57600080fd5b5051919050565b80820281158282048414176108a4576108a4613882565b634e487b7160e01b600052601260045260246000fd5b600082613c8d57634e487b7160e01b600052601260045260246000fd5b500490565b60a081526000613ca560a08301886139ae565b8281036020840152613cb78188613574565b90508281036040840152613ccb81876139e7565b60608401959095525050608001529392505050565b60c081526000613cf360c08301896139ae565b8281036020840152613d058189613574565b90508281036040840152613d1981886139e7565b60608401969096525050608081019290925260a0909101529392505050565b828152604060208201526000610d626040830184612e63565b60008251613d63818460208701612e3f565b9190910192915050565b60ff81811683821601908111156108a4576108a4613882565b600181815b80851115613dc1578160001904821115613da757613da7613882565b80851615613db457918102915b93841c9390800290613d8b565b509250929050565b600082613dd8575060016108a4565b81613de5575060006108a4565b8160018114613dfb5760028114613e0557613e21565b60019150506108a4565b60ff841115613e1657613e16613882565b50506001821b6108a4565b5060208310610133831016604e8410600b8410161715613e44575081810a6108a4565b613e4e8383613d86565b8060001904821115613e6257613e62613882565b029392505050565b600061134860ff841683613dc956fef2aad550cf55f045cb27e9c559f9889fdfb6e6cdaa032301d6ea397784ae51d73e83946653575f9a39005e1545185629e92736b7528ab20ca3816f315424a811a264697066735822122017da28cc2aed7dea15623456793321495b4fcb52df15f52204a08db9663b277964736f6c63430008140033",
  "linkReferences": {},
  "deployedLinkReferences": {}
}