{
    "_format": "hh-sol-artifact-1",
    "contractName": "Cert",
    "sourceName": "contracts/Cert.sol",
    "abi": [
        {
            "inputs": [
                {
                    "internalType": "address[]",
                    "name": "_admins",
                    "type": "address[]"
                }
            ],
            "stateMutability": "nonpayable",
            "type": "constructor"
        },
        {
            "inputs": [
                {
                    "internalType": "uint256",
                    "name": "",
                    "type": "uint256"
                }
            ],
            "name": "Certificates",
            "outputs": [
                {
                    "internalType": "string",
                    "name": "name",
                    "type": "string"
                },
                {
                    "internalType": "string",
                    "name": "course",
                    "type": "string"
                },
                {
                    "internalType": "string",
                    "name": "grade",
                    "type": "string"
                },
                {
                    "internalType": "string",
                    "name": "date",
                    "type": "string"
                }
            ],
            "stateMutability": "view",
            "type": "function"
        },
        {
            "inputs": [
                {
                    "internalType": "uint256",
                    "name": "",
                    "type": "uint256"
                }
            ],
            "name": "admins",
            "outputs": [
                {
                    "internalType": "address",
                    "name": "",
                    "type": "address"
                }
            ],
            "stateMutability": "view",
            "type": "function"
        },
        {
            "inputs": [
                {
                    "internalType": "uint256",
                    "name": "_id",
                    "type": "uint256"
                },
                {
                    "internalType": "string",
                    "name": "_name",
                    "type": "string"
                },
                {
                    "internalType": "string",
                    "name": "_course",
                    "type": "string"
                },
                {
                    "internalType": "string",
                    "name": "_grade",
                    "type": "string"
                },
                {
                    "internalType": "string",
                    "name": "_date",
                    "type": "string"
                }
            ],
            "name": "issue",
            "outputs": [],
            "stateMutability": "nonpayable",
            "type": "function"
        }
    ],
    "bytecode": "0x60806040523480156200001157600080fd5b50604051620011de380380620011de83398181016040528101906200003791906200032b565b6000339080600181540180825580915050600190039060005260206000200160009091909190916101000a81548173ffffffffffffffffffffffffffffffffffffffff021916908373ffffffffffffffffffffffffffffffffffffffff16021790555060005b815181101562000135576000828281518110620000bf57620000be6200037c565b5b60200260200101519080600181540180825580915050600190039060005260206000200160009091909190916101000a81548173ffffffffffffffffffffffffffffffffffffffff021916908373ffffffffffffffffffffffffffffffffffffffff16021790555080806001019150506200009d565b5050620003ab565b6000604051905090565b600080fd5b600080fd5b600080fd5b6000601f19601f8301169050919050565b7f4e487b7100000000000000000000000000000000000000000000000000000000600052604160045260246000fd5b620001a18262000156565b810181811067ffffffffffffffff82111715620001c357620001c262000167565b5b80604052505050565b6000620001d86200013d565b9050620001e6828262000196565b919050565b600067ffffffffffffffff82111562000209576200020862000167565b5b602082029050602081019050919050565b600080fd5b600073ffffffffffffffffffffffffffffffffffffffff82169050919050565b60006200024c826200021f565b9050919050565b6200025e816200023f565b81146200026a57600080fd5b50565b6000815190506200027e8162000253565b92915050565b60006200029b6200029584620001eb565b620001cc565b90508083825260208201905060208402830185811115620002c157620002c06200021a565b5b835b81811015620002ee5780620002d988826200026d565b845260208401935050602081019050620002c3565b5050509392505050565b600082601f83011262000310576200030f62000151565b5b81516200032284826020860162000284565b91505092915050565b60006020828403121562000344576200034362000147565b5b600082015167ffffffffffffffff8111156200036557620003646200014c565b5b6200037384828501620002f8565b91505092915050565b7f4e487b7100000000000000000000000000000000000000000000000000000000600052603260045260246000fd5b610e2380620003bb6000396000f3fe608060405234801561001057600080fd5b50600436106100415760003560e01c806314bfd6d0146100465780639622c83614610076578063d1e7be26146100a9575b600080fd5b610060600480360381019061005b91906105d1565b6100c5565b60405161006d919061063f565b60405180910390f35b610090600480360381019061008b91906105d1565b610104565b6040516100a094939291906106ea565b60405180910390f35b6100c360048036038101906100be9190610880565b610354565b005b600081815481106100d557600080fd5b906000526020600020016000915054906101000a900473ffffffffffffffffffffffffffffffffffffffff1681565b60016020528060005260406000206000915090508060000180546101279061099a565b80601f01602080910402602001604051908101604052809291908181526020018280546101539061099a565b80156101a05780601f10610175576101008083540402835291602001916101a0565b820191906000526020600020905b81548152906001019060200180831161018357829003601f168201915b5050505050908060010180546101b59061099a565b80601f01602080910402602001604051908101604052809291908181526020018280546101e19061099a565b801561022e5780601f106102035761010080835404028352916020019161022e565b820191906000526020600020905b81548152906001019060200180831161021157829003601f168201915b5050505050908060020180546102439061099a565b80601f016020809104026020016040519081016040528092919081815260200182805461026f9061099a565b80156102bc5780601f10610291576101008083540402835291602001916102bc565b820191906000526020600020905b81548152906001019060200180831161029f57829003601f168201915b5050505050908060030180546102d19061099a565b80601f01602080910402602001604051908101604052809291908181526020018280546102fd9061099a565b801561034a5780601f1061031f5761010080835404028352916020019161034a565b820191906000526020600020905b81548152906001019060200180831161032d57829003601f168201915b5050505050905084565b6000805b6000805490508110156103ec5760008181548110610379576103786109cb565b5b9060005260206000200160009054906101000a900473ffffffffffffffffffffffffffffffffffffffff1673ffffffffffffffffffffffffffffffffffffffff163373ffffffffffffffffffffffffffffffffffffffff16036103df57600191506103ec565b8080600101915050610358565b506001151581151514610434576040517f08c379a000000000000000000000000000000000000000000000000000000000815260040161042b90610a46565b60405180910390fd5b8560006001905060005b600354811015610478578260026000838152602001908152602001600020540361046b5760009150610478565b808060010191505061043e565b5060011515811515146104c0576040517f08c379a00000000000000000000000000000000000000000000000000000000081526004016104b790610ad8565b60405180910390fd5b604051806080016040528088815260200187815260200186815260200185815250600160008a815260200190815260200160002060008201518160000190816105099190610ca4565b50602082015181600101908161051f9190610ca4565b5060408201518160020190816105359190610ca4565b50606082015181600301908161054b9190610ca4565b5090505087600260006003600081548092919061056790610da5565b919050558152602001908152602001600020819055505050505050505050565b6000604051905090565b600080fd5b600080fd5b6000819050919050565b6105ae8161059b565b81146105b957600080fd5b50565b6000813590506105cb816105a5565b92915050565b6000602082840312156105e7576105e6610591565b5b60006105f5848285016105bc565b91505092915050565b600073ffffffffffffffffffffffffffffffffffffffff82169050919050565b6000610629826105fe565b9050919050565b6106398161061e565b82525050565b60006020820190506106546000830184610630565b92915050565b600081519050919050565b600082825260208201905092915050565b60005b83811015610694578082015181840152602081019050610679565b60008484015250505050565b6000601f19601f8301169050919050565b60006106bc8261065a565b6106c68185610665565b93506106d6818560208601610676565b6106df816106a0565b840191505092915050565b6000608082019050818103600083015261070481876106b1565b9050818103602083015261071881866106b1565b9050818103604083015261072c81856106b1565b9050818103606083015261074081846106b1565b905095945050505050565b600080fd5b600080fd5b7f4e487b7100000000000000000000000000000000000000000000000000000000600052604160045260246000fd5b61078d826106a0565b810181811067ffffffffffffffff821117156107ac576107ab610755565b5b80604052505050565b60006107bf610587565b90506107cb8282610784565b919050565b600067ffffffffffffffff8211156107eb576107ea610755565b5b6107f4826106a0565b9050602081019050919050565b82818337600083830152505050565b600061082361081e846107d0565b6107b5565b90508281526020810184848401111561083f5761083e610750565b5b61084a848285610801565b509392505050565b600082601f8301126108675761086661074b565b5b8135610877848260208601610810565b91505092915050565b600080600080600060a0868803121561089c5761089b610591565b5b60006108aa888289016105bc565b955050602086013567ffffffffffffffff8111156108cb576108ca610596565b5b6108d788828901610852565b945050604086013567ffffffffffffffff8111156108f8576108f7610596565b5b61090488828901610852565b935050606086013567ffffffffffffffff81111561092557610924610596565b5b61093188828901610852565b925050608086013567ffffffffffffffff81111561095257610951610596565b5b61095e88828901610852565b9150509295509295909350565b7f4e487b7100000000000000000000000000000000000000000000000000000000600052602260045260246000fd5b600060028204905060018216806109b257607f821691505b6020821081036109c5576109c461096b565b5b50919050565b7f4e487b7100000000000000000000000000000000000000000000000000000000600052603260045260246000fd5b7f4163636573732044656e69656400000000000000000000000000000000000000600082015250565b6000610a30600d83610665565b9150610a3b826109fa565b602082019050919050565b60006020820190508181036000830152610a5f81610a23565b9050919050565b7f412063657274696669636174652068617320616c7265616479206265656e206960008201527f7373756564207769746820746869732049442e00000000000000000000000000602082015250565b6000610ac2603383610665565b9150610acd82610a66565b604082019050919050565b60006020820190508181036000830152610af181610ab5565b9050919050565b60008190508160005260206000209050919050565b60006020601f8301049050919050565b600082821b905092915050565b600060088302610b5a7fffffffffffffffffffffffffffffffffffffffffffffffffffffffffffffffff82610b1d565b610b648683610b1d565b95508019841693508086168417925050509392505050565b6000819050919050565b6000610ba1610b9c610b978461059b565b610b7c565b61059b565b9050919050565b6000819050919050565b610bbb83610b86565b610bcf610bc782610ba8565b848454610b2a565b825550505050565b600090565b610be4610bd7565b610bef818484610bb2565b505050565b5b81811015610c1357610c08600082610bdc565b600181019050610bf5565b5050565b601f821115610c5857610c2981610af8565b610c3284610b0d565b81016020851015610c41578190505b610c55610c4d85610b0d565b830182610bf4565b50505b505050565b600082821c905092915050565b6000610c7b60001984600802610c5d565b1980831691505092915050565b6000610c948383610c6a565b9150826002028217905092915050565b610cad8261065a565b67ffffffffffffffff811115610cc657610cc5610755565b5b610cd0825461099a565b610cdb828285610c17565b600060209050601f831160018114610d0e5760008415610cfc578287015190505b610d068582610c88565b865550610d6e565b601f198416610d1c86610af8565b60005b82811015610d4457848901518255600182019150602085019450602081019050610d1f565b86831015610d615784890151610d5d601f891682610c6a565b8355505b6001600288020188555050505b505050505050565b7f4e487b7100000000000000000000000000000000000000000000000000000000600052601160045260246000fd5b6000610db08261059b565b91507fffffffffffffffffffffffffffffffffffffffffffffffffffffffffffffffff8203610de257610de1610d76565b5b60018201905091905056fea2646970667358221220c7c979f7182a1c6a35b6471adf7b79cd61fe158184860de34043d61f7eba080364736f6c63430008180033",
    "linkReferences": {},
    "deployedLinkReferences": {},
    "contractAddress": "0x5FbDB2315678afecb367f032d93F642f64180aa3"
}