{
  "_format": "hh-sol-artifact-1",
  "contractName": "RecognitionAward",
  "sourceName": "contracts/RecognitionAward.sol",
  "abi": [
    {
      "inputs": [
        {
          "internalType": "address[]",
          "name": "_admins",
          "type": "address[]"
        }
      ],
      "stateMutability": "nonpayable",
      "type": "constructor"
    },
    {
      "anonymous": false,
      "inputs": [
        {
          "indexed": false,
          "internalType": "address",
          "name": "admin",
          "type": "address"
        }
      ],
      "name": "AddedAdmin",
      "type": "event"
    },
    {
      "anonymous": false,
      "inputs": [
        {
          "indexed": false,
          "internalType": "string",
          "name": "award",
          "type": "string"
        },
        {
          "indexed": false,
          "internalType": "uint256",
          "name": "id",
          "type": "uint256"
        },
        {
          "indexed": false,
          "internalType": "string",
          "name": "date",
          "type": "string"
        }
      ],
      "name": "Issued",
      "type": "event"
    },
    {
      "anonymous": false,
      "inputs": [
        {
          "indexed": false,
          "internalType": "address",
          "name": "admin",
          "type": "address"
        }
      ],
      "name": "RevokedAdmin",
      "type": "event"
    },
    {
      "inputs": [
        {
          "internalType": "uint256",
          "name": "",
          "type": "uint256"
        }
      ],
      "name": "Awards",
      "outputs": [
        {
          "internalType": "string",
          "name": "name",
          "type": "string"
        },
        {
          "internalType": "string",
          "name": "award",
          "type": "string"
        },
        {
          "internalType": "string",
          "name": "description",
          "type": "string"
        },
        {
          "internalType": "string",
          "name": "date",
          "type": "string"
        }
      ],
      "stateMutability": "view",
      "type": "function"
    },
    {
      "inputs": [
        {
          "internalType": "address",
          "name": "admin",
          "type": "address"
        }
      ],
      "name": "addAdmin",
      "outputs": [],
      "stateMutability": "nonpayable",
      "type": "function"
    },
    {
      "inputs": [
        {
          "internalType": "uint256",
          "name": "",
          "type": "uint256"
        }
      ],
      "name": "admins",
      "outputs": [
        {
          "internalType": "address",
          "name": "",
          "type": "address"
        }
      ],
      "stateMutability": "view",
      "type": "function"
    },
    {
      "inputs": [
        {
          "internalType": "uint256",
          "name": "_id",
          "type": "uint256"
        },
        {
          "internalType": "string",
          "name": "_name",
          "type": "string"
        },
        {
          "internalType": "string",
          "name": "_award",
          "type": "string"
        },
        {
          "internalType": "string",
          "name": "_description",
          "type": "string"
        },
        {
          "internalType": "string",
          "name": "_date",
          "type": "string"
        }
      ],
      "name": "issue",
      "outputs": [],
      "stateMutability": "nonpayable",
      "type": "function"
    },
    {
      "inputs": [
        {
          "internalType": "address",
          "name": "admin",
          "type": "address"
        }
      ],
      "name": "revokeAdmin",
      "outputs": [],
      "stateMutability": "nonpayable",
      "type": "function"
    }
  ],
  "bytecode": "0x60806040523480156200001157600080fd5b506040516200104a3803806200104a833981016040819052620000349162000120565b600080546001810182558180527f290decd9548b62a8d60345a988386fc84ba6bc95484008f6362f93160ef3e5630180546001600160a01b031916331790555b8151811015620000e5576000828281518110620000955762000095620001f2565b60209081029190910181015182546001810184556000938452919092200180546001600160a01b0319166001600160a01b0390921691909117905580620000dc8162000208565b91505062000074565b505062000230565b634e487b7160e01b600052604160045260246000fd5b80516001600160a01b03811681146200011b57600080fd5b919050565b600060208083850312156200013457600080fd5b82516001600160401b03808211156200014c57600080fd5b818501915085601f8301126200016157600080fd5b815181811115620001765762000176620000ed565b8060051b604051601f19603f830116810181811085821117156200019e576200019e620000ed565b604052918252848201925083810185019188831115620001bd57600080fd5b938501935b82851015620001e657620001d68562000103565b84529385019392850192620001c2565b98975050505050505050565b634e487b7160e01b600052603260045260246000fd5b6000600182016200022957634e487b7160e01b600052601160045260246000fd5b5060010190565b610e0a80620002406000396000f3fe608060405234801561001057600080fd5b50600436106100575760003560e01c806314bfd6d01461005c5780632362b26d146100855780632d345670146100a857806370480275146100bd578063d1e7be26146100d0575b600080fd5b61006f61006a36600461098a565b6100e3565b60405161007c91906109a3565b60405180910390f35b61009861009336600461098a565b61010d565b60405161007c94939291906109fd565b6100bb6100b6366004610a55565b610355565b005b6100bb6100cb366004610a55565b6105b4565b6100bb6100de366004610b27565b610773565b600081815481106100f357600080fd5b6000918252602090912001546001600160a01b0316905081565b60016020526000908152604090208054819061012890610bdd565b80601f016020809104026020016040519081016040528092919081815260200182805461015490610bdd565b80156101a15780601f10610176576101008083540402835291602001916101a1565b820191906000526020600020905b81548152906001019060200180831161018457829003601f168201915b5050505050908060010180546101b690610bdd565b80601f01602080910402602001604051908101604052809291908181526020018280546101e290610bdd565b801561022f5780601f106102045761010080835404028352916020019161022f565b820191906000526020600020905b81548152906001019060200180831161021257829003601f168201915b50505050509080600201805461024490610bdd565b80601f016020809104026020016040519081016040528092919081815260200182805461027090610bdd565b80156102bd5780601f10610292576101008083540402835291602001916102bd565b820191906000526020600020905b8154815290600101906020018083116102a057829003601f168201915b5050505050908060030180546102d290610bdd565b80601f01602080910402602001604051908101604052809291908181526020018280546102fe90610bdd565b801561034b5780601f106103205761010080835404028352916020019161034b565b820191906000526020600020905b81548152906001019060200180831161032e57829003601f168201915b5050505050905084565b6000805b6000548110156103ac576000818154811061037657610376610c17565b6000918252602090912001546001600160a01b0316330361039a57600191506103ac565b806103a481610c2d565b915050610359565b506001811515146103d85760405162461bcd60e51b81526004016103cf90610c54565b60405180910390fd5b816000805b60005481101561043457600081815481106103fa576103fa610c17565b6000918252602090912001546001600160a01b03908116908416036104225760019150610434565b8061042c81610c2d565b9150506103dd565b506001811515146104765760405162461bcd60e51b815260206004820152600c60248201526b2737ba1030b71030b236b4b760a11b60448201526064016103cf565b6000805b60005481101561054157856001600160a01b0316600082815481106104a1576104a1610c17565b6000918252602090912001546001600160a01b03161461052f57600081815481106104ce576104ce610c17565b600091825260208220015481546001600160a01b039091169190849081106104f8576104f8610c17565b600091825260209091200180546001600160a01b0319166001600160a01b03929092169190911790558161052b81610c2d565b9250505b8061053981610c2d565b91505061047a565b50600080548061055357610553610c7b565b600082815260209020810160001990810180546001600160a01b03191690550190556040517f26e1334bb4ac8458e1edfeedb64f96ceded27e8e84993b4f9460e01a1b203584906105a59087906109a3565b60405180910390a15050505050565b6000805b60005481101561060b57600081815481106105d5576105d5610c17565b6000918252602090912001546001600160a01b031633036105f9576001915061060b565b8061060381610c2d565b9150506105b8565b5060018115151461062e5760405162461bcd60e51b81526004016103cf90610c54565b81600160005b60005481101561069057826001600160a01b03166000828154811061065b5761065b610c17565b6000918252602090912001546001600160a01b03160361067e5760009150610690565b8061068881610c2d565b915050610634565b506001811515146106ed5760405162461bcd60e51b815260206004820152602160248201527f54686973206164647265737320697320616c726561647920616e2061646d696e6044820152601760f91b60648201526084016103cf565b600080546001810182559080527f290decd9548b62a8d60345a988386fc84ba6bc95484008f6362f93160ef3e5630180546001600160a01b0319166001600160a01b0386161790556040517f7849194239ab1d31b991b5436d81370256505cf25eaafbcccbc66acd11896916906107659086906109a3565b60405180910390a150505050565b6000805b6000548110156107ca576000818154811061079457610794610c17565b6000918252602090912001546001600160a01b031633036107b857600191506107ca565b806107c281610c2d565b915050610777565b506001811515146107ed5760405162461bcd60e51b81526004016103cf90610c54565b85600160005b60035481101561082e5760008181526002602052604090205483900361081c576000915061082e565b8061082681610c2d565b9150506107f3565b506001811515146108985760405162461bcd60e51b815260206004820152602e60248201527f416e2061776172642068617320616c7265616479206265656e2069737375656460448201526d103bb4ba34103a3434b99024a21760911b60648201526084016103cf565b6040805160808101825288815260208082018990528183018890526060820187905260008b8152600190915291909120815181906108d69082610ce0565b50602082015160018201906108eb9082610ce0565b50604082015160028201906109009082610ce0565b50606082015160038201906109159082610ce0565b5050600380548a9250600291600091908261092f83610c2d565b919050558152602001908152602001600020819055507fc7fc4858662996e8fe091a9941384ab745bfc51199d7c0a5e45a791ff945993c86898660405161097893929190610d9f565b60405180910390a15050505050505050565b60006020828403121561099c57600080fd5b5035919050565b6001600160a01b0391909116815260200190565b6000815180845260005b818110156109dd576020818501810151868301820152016109c1565b506000602082860101526020601f19601f83011685010191505092915050565b608081526000610a1060808301876109b7565b8281036020840152610a2281876109b7565b90508281036040840152610a3681866109b7565b90508281036060840152610a4a81856109b7565b979650505050505050565b600060208284031215610a6757600080fd5b81356001600160a01b0381168114610a7e57600080fd5b9392505050565b634e487b7160e01b600052604160045260246000fd5b600082601f830112610aac57600080fd5b81356001600160401b0380821115610ac657610ac6610a85565b604051601f8301601f19908116603f01168101908282118183101715610aee57610aee610a85565b81604052838152866020858801011115610b0757600080fd5b836020870160208301376000602085830101528094505050505092915050565b600080600080600060a08688031215610b3f57600080fd5b8535945060208601356001600160401b0380821115610b5d57600080fd5b610b6989838a01610a9b565b95506040880135915080821115610b7f57600080fd5b610b8b89838a01610a9b565b94506060880135915080821115610ba157600080fd5b610bad89838a01610a9b565b93506080880135915080821115610bc357600080fd5b50610bd088828901610a9b565b9150509295509295909350565b600181811c90821680610bf157607f821691505b602082108103610c1157634e487b7160e01b600052602260045260246000fd5b50919050565b634e487b7160e01b600052603260045260246000fd5b600060018201610c4d57634e487b7160e01b600052601160045260246000fd5b5060010190565b6020808252600d908201526c1058d8d95cdcc811195b9a5959609a1b604082015260600190565b634e487b7160e01b600052603160045260246000fd5b601f821115610cdb57600081815260208120601f850160051c81016020861015610cb85750805b601f850160051c820191505b81811015610cd757828155600101610cc4565b5050505b505050565b81516001600160401b03811115610cf957610cf9610a85565b610d0d81610d078454610bdd565b84610c91565b602080601f831160018114610d425760008415610d2a5750858301515b600019600386901b1c1916600185901b178555610cd7565b600085815260208120601f198616915b82811015610d7157888601518255948401946001909101908401610d52565b5085821015610d8f5787850151600019600388901b60f8161c191681555b5050505050600190811b01905550565b606081526000610db260608301866109b7565b8460208401528281036040840152610dca81856109b7565b969550505050505056fea2646970667358221220533d5c2b4de513a6e425cab47370524e08344e49d371d5b53047a2d222f8412664736f6c63430008140033",
  "linkReferences": {},
  "deployedLinkReferences": {}
}