{
  "_format": "hh-sol-artifact-1",
  "contractName": "GovToken",
  "sourceName": "contracts/DAO_Token.sol",
  "abi": [
    {
      "inputs": [
        {
          "internalType": "address",
          "name": "initialOwner",
          "type": "address"
        }
      ],
      "stateMutability": "nonpayable",
      "type": "constructor"
    },
    {
      "inputs": [],
      "name": "CheckpointUnorderedInsertion",
      "type": "error"
    },
    {
      "inputs": [],
      "name": "ECDSAInvalidSignature",
      "type": "error"
    },
    {
      "inputs": [
        {
          "internalType": "uint256",
          "name": "length",
          "type": "uint256"
        }
      ],
      "name": "ECDSAInvalidSignatureLength",
      "type": "error"
    },
    {
      "inputs": [
        {
          "internalType": "bytes32",
          "name": "s",
          "type": "bytes32"
        }
      ],
      "name": "ECDSAInvalidSignatureS",
      "type": "error"
    },
    {
      "inputs": [
        {
          "internalType": "uint256",
          "name": "increasedSupply",
          "type": "uint256"
        },
        {
          "internalType": "uint256",
          "name": "cap",
          "type": "uint256"
        }
      ],
      "name": "ERC20ExceededSafeSupply",
      "type": "error"
    },
    {
      "inputs": [
        {
          "internalType": "address",
          "name": "spender",
          "type": "address"
        },
        {
          "internalType": "uint256",
          "name": "allowance",
          "type": "uint256"
        },
        {
          "internalType": "uint256",
          "name": "needed",
          "type": "uint256"
        }
      ],
      "name": "ERC20InsufficientAllowance",
      "type": "error"
    },
    {
      "inputs": [
        {
          "internalType": "address",
          "name": "sender",
          "type": "address"
        },
        {
          "internalType": "uint256",
          "name": "balance",
          "type": "uint256"
        },
        {
          "internalType": "uint256",
          "name": "needed",
          "type": "uint256"
        }
      ],
      "name": "ERC20InsufficientBalance",
      "type": "error"
    },
    {
      "inputs": [
        {
          "internalType": "address",
          "name": "approver",
          "type": "address"
        }
      ],
      "name": "ERC20InvalidApprover",
      "type": "error"
    },
    {
      "inputs": [
        {
          "internalType": "address",
          "name": "receiver",
          "type": "address"
        }
      ],
      "name": "ERC20InvalidReceiver",
      "type": "error"
    },
    {
      "inputs": [
        {
          "internalType": "address",
          "name": "sender",
          "type": "address"
        }
      ],
      "name": "ERC20InvalidSender",
      "type": "error"
    },
    {
      "inputs": [
        {
          "internalType": "address",
          "name": "spender",
          "type": "address"
        }
      ],
      "name": "ERC20InvalidSpender",
      "type": "error"
    },
    {
      "inputs": [
        {
          "internalType": "uint256",
          "name": "deadline",
          "type": "uint256"
        }
      ],
      "name": "ERC2612ExpiredSignature",
      "type": "error"
    },
    {
      "inputs": [
        {
          "internalType": "address",
          "name": "signer",
          "type": "address"
        },
        {
          "internalType": "address",
          "name": "owner",
          "type": "address"
        }
      ],
      "name": "ERC2612InvalidSigner",
      "type": "error"
    },
    {
      "inputs": [
        {
          "internalType": "uint256",
          "name": "timepoint",
          "type": "uint256"
        },
        {
          "internalType": "uint48",
          "name": "clock",
          "type": "uint48"
        }
      ],
      "name": "ERC5805FutureLookup",
      "type": "error"
    },
    {
      "inputs": [],
      "name": "ERC6372InconsistentClock",
      "type": "error"
    },
    {
      "inputs": [
        {
          "internalType": "address",
          "name": "account",
          "type": "address"
        },
        {
          "internalType": "uint256",
          "name": "currentNonce",
          "type": "uint256"
        }
      ],
      "name": "InvalidAccountNonce",
      "type": "error"
    },
    {
      "inputs": [],
      "name": "InvalidShortString",
      "type": "error"
    },
    {
      "inputs": [
        {
          "internalType": "address",
          "name": "owner",
          "type": "address"
        }
      ],
      "name": "OwnableInvalidOwner",
      "type": "error"
    },
    {
      "inputs": [
        {
          "internalType": "address",
          "name": "account",
          "type": "address"
        }
      ],
      "name": "OwnableUnauthorizedAccount",
      "type": "error"
    },
    {
      "inputs": [
        {
          "internalType": "uint8",
          "name": "bits",
          "type": "uint8"
        },
        {
          "internalType": "uint256",
          "name": "value",
          "type": "uint256"
        }
      ],
      "name": "SafeCastOverflowedUintDowncast",
      "type": "error"
    },
    {
      "inputs": [
        {
          "internalType": "string",
          "name": "str",
          "type": "string"
        }
      ],
      "name": "StringTooLong",
      "type": "error"
    },
    {
      "inputs": [
        {
          "internalType": "uint256",
          "name": "expiry",
          "type": "uint256"
        }
      ],
      "name": "VotesExpiredSignature",
      "type": "error"
    },
    {
      "anonymous": false,
      "inputs": [
        {
          "indexed": true,
          "internalType": "address",
          "name": "owner",
          "type": "address"
        },
        {
          "indexed": true,
          "internalType": "address",
          "name": "spender",
          "type": "address"
        },
        {
          "indexed": false,
          "internalType": "uint256",
          "name": "value",
          "type": "uint256"
        }
      ],
      "name": "Approval",
      "type": "event"
    },
    {
      "anonymous": false,
      "inputs": [
        {
          "indexed": true,
          "internalType": "address",
          "name": "delegator",
          "type": "address"
        },
        {
          "indexed": true,
          "internalType": "address",
          "name": "fromDelegate",
          "type": "address"
        },
        {
          "indexed": true,
          "internalType": "address",
          "name": "toDelegate",
          "type": "address"
        }
      ],
      "name": "DelegateChanged",
      "type": "event"
    },
    {
      "anonymous": false,
      "inputs": [
        {
          "indexed": true,
          "internalType": "address",
          "name": "delegate",
          "type": "address"
        },
        {
          "indexed": false,
          "internalType": "uint256",
          "name": "previousVotes",
          "type": "uint256"
        },
        {
          "indexed": false,
          "internalType": "uint256",
          "name": "newVotes",
          "type": "uint256"
        }
      ],
      "name": "DelegateVotesChanged",
      "type": "event"
    },
    {
      "anonymous": false,
      "inputs": [],
      "name": "EIP712DomainChanged",
      "type": "event"
    },
    {
      "anonymous": false,
      "inputs": [
        {
          "indexed": true,
          "internalType": "address",
          "name": "previousOwner",
          "type": "address"
        },
        {
          "indexed": true,
          "internalType": "address",
          "name": "newOwner",
          "type": "address"
        }
      ],
      "name": "OwnershipTransferred",
      "type": "event"
    },
    {
      "anonymous": false,
      "inputs": [
        {
          "indexed": true,
          "internalType": "address",
          "name": "from",
          "type": "address"
        },
        {
          "indexed": true,
          "internalType": "address",
          "name": "to",
          "type": "address"
        },
        {
          "indexed": false,
          "internalType": "uint256",
          "name": "value",
          "type": "uint256"
        }
      ],
      "name": "Transfer",
      "type": "event"
    },
    {
      "inputs": [],
      "name": "CLOCK_MODE",
      "outputs": [
        {
          "internalType": "string",
          "name": "",
          "type": "string"
        }
      ],
      "stateMutability": "view",
      "type": "function"
    },
    {
      "inputs": [],
      "name": "DOMAIN_SEPARATOR",
      "outputs": [
        {
          "internalType": "bytes32",
          "name": "",
          "type": "bytes32"
        }
      ],
      "stateMutability": "view",
      "type": "function"
    },
    {
      "inputs": [
        {
          "internalType": "address",
          "name": "owner",
          "type": "address"
        },
        {
          "internalType": "address",
          "name": "spender",
          "type": "address"
        }
      ],
      "name": "allowance",
      "outputs": [
        {
          "internalType": "uint256",
          "name": "",
          "type": "uint256"
        }
      ],
      "stateMutability": "view",
      "type": "function"
    },
    {
      "inputs": [
        {
          "internalType": "address",
          "name": "spender",
          "type": "address"
        },
        {
          "internalType": "uint256",
          "name": "value",
          "type": "uint256"
        }
      ],
      "name": "approve",
      "outputs": [
        {
          "internalType": "bool",
          "name": "",
          "type": "bool"
        }
      ],
      "stateMutability": "nonpayable",
      "type": "function"
    },
    {
      "inputs": [
        {
          "internalType": "address",
          "name": "account",
          "type": "address"
        }
      ],
      "name": "balanceOf",
      "outputs": [
        {
          "internalType": "uint256",
          "name": "",
          "type": "uint256"
        }
      ],
      "stateMutability": "view",
      "type": "function"
    },
    {
      "inputs": [
        {
          "internalType": "address",
          "name": "account",
          "type": "address"
        },
        {
          "internalType": "uint32",
          "name": "pos",
          "type": "uint32"
        }
      ],
      "name": "checkpoints",
      "outputs": [
        {
          "components": [
            {
              "internalType": "uint48",
              "name": "_key",
              "type": "uint48"
            },
            {
              "internalType": "uint208",
              "name": "_value",
              "type": "uint208"
            }
          ],
          "internalType": "struct Checkpoints.Checkpoint208",
          "name": "",
          "type": "tuple"
        }
      ],
      "stateMutability": "view",
      "type": "function"
    },
    {
      "inputs": [],
      "name": "clock",
      "outputs": [
        {
          "internalType": "uint48",
          "name": "",
          "type": "uint48"
        }
      ],
      "stateMutability": "view",
      "type": "function"
    },
    {
      "inputs": [],
      "name": "decimals",
      "outputs": [
        {
          "internalType": "uint8",
          "name": "",
          "type": "uint8"
        }
      ],
      "stateMutability": "view",
      "type": "function"
    },
    {
      "inputs": [
        {
          "internalType": "address",
          "name": "delegatee",
          "type": "address"
        }
      ],
      "name": "delegate",
      "outputs": [],
      "stateMutability": "nonpayable",
      "type": "function"
    },
    {
      "inputs": [
        {
          "internalType": "address",
          "name": "delegatee",
          "type": "address"
        },
        {
          "internalType": "uint256",
          "name": "nonce",
          "type": "uint256"
        },
        {
          "internalType": "uint256",
          "name": "expiry",
          "type": "uint256"
        },
        {
          "internalType": "uint8",
          "name": "v",
          "type": "uint8"
        },
        {
          "internalType": "bytes32",
          "name": "r",
          "type": "bytes32"
        },
        {
          "internalType": "bytes32",
          "name": "s",
          "type": "bytes32"
        }
      ],
      "name": "delegateBySig",
      "outputs": [],
      "stateMutability": "nonpayable",
      "type": "function"
    },
    {
      "inputs": [
        {
          "internalType": "address",
          "name": "account",
          "type": "address"
        }
      ],
      "name": "delegates",
      "outputs": [
        {
          "internalType": "address",
          "name": "",
          "type": "address"
        }
      ],
      "stateMutability": "view",
      "type": "function"
    },
    {
      "inputs": [],
      "name": "eip712Domain",
      "outputs": [
        {
          "internalType": "bytes1",
          "name": "fields",
          "type": "bytes1"
        },
        {
          "internalType": "string",
          "name": "name",
          "type": "string"
        },
        {
          "internalType": "string",
          "name": "version",
          "type": "string"
        },
        {
          "internalType": "uint256",
          "name": "chainId",
          "type": "uint256"
        },
        {
          "internalType": "address",
          "name": "verifyingContract",
          "type": "address"
        },
        {
          "internalType": "bytes32",
          "name": "salt",
          "type": "bytes32"
        },
        {
          "internalType": "uint256[]",
          "name": "extensions",
          "type": "uint256[]"
        }
      ],
      "stateMutability": "view",
      "type": "function"
    },
    {
      "inputs": [
        {
          "internalType": "uint256",
          "name": "timepoint",
          "type": "uint256"
        }
      ],
      "name": "getPastTotalSupply",
      "outputs": [
        {
          "internalType": "uint256",
          "name": "",
          "type": "uint256"
        }
      ],
      "stateMutability": "view",
      "type": "function"
    },
    {
      "inputs": [
        {
          "internalType": "address",
          "name": "account",
          "type": "address"
        },
        {
          "internalType": "uint256",
          "name": "timepoint",
          "type": "uint256"
        }
      ],
      "name": "getPastVotes",
      "outputs": [
        {
          "internalType": "uint256",
          "name": "",
          "type": "uint256"
        }
      ],
      "stateMutability": "view",
      "type": "function"
    },
    {
      "inputs": [
        {
          "internalType": "address",
          "name": "account",
          "type": "address"
        }
      ],
      "name": "getVotes",
      "outputs": [
        {
          "internalType": "uint256",
          "name": "",
          "type": "uint256"
        }
      ],
      "stateMutability": "view",
      "type": "function"
    },
    {
      "inputs": [
        {
          "internalType": "address",
          "name": "to",
          "type": "address"
        },
        {
          "internalType": "uint256",
          "name": "amount",
          "type": "uint256"
        }
      ],
      "name": "mint",
      "outputs": [],
      "stateMutability": "nonpayable",
      "type": "function"
    },
    {
      "inputs": [],
      "name": "name",
      "outputs": [
        {
          "internalType": "string",
          "name": "",
          "type": "string"
        }
      ],
      "stateMutability": "view",
      "type": "function"
    },
    {
      "inputs": [
        {
          "internalType": "address",
          "name": "owner",
          "type": "address"
        }
      ],
      "name": "nonces",
      "outputs": [
        {
          "internalType": "uint256",
          "name": "",
          "type": "uint256"
        }
      ],
      "stateMutability": "view",
      "type": "function"
    },
    {
      "inputs": [
        {
          "internalType": "address",
          "name": "account",
          "type": "address"
        }
      ],
      "name": "numCheckpoints",
      "outputs": [
        {
          "internalType": "uint32",
          "name": "",
          "type": "uint32"
        }
      ],
      "stateMutability": "view",
      "type": "function"
    },
    {
      "inputs": [],
      "name": "owner",
      "outputs": [
        {
          "internalType": "address",
          "name": "",
          "type": "address"
        }
      ],
      "stateMutability": "view",
      "type": "function"
    },
    {
      "inputs": [
        {
          "internalType": "address",
          "name": "owner",
          "type": "address"
        },
        {
          "internalType": "address",
          "name": "spender",
          "type": "address"
        },
        {
          "internalType": "uint256",
          "name": "value",
          "type": "uint256"
        },
        {
          "internalType": "uint256",
          "name": "deadline",
          "type": "uint256"
        },
        {
          "internalType": "uint8",
          "name": "v",
          "type": "uint8"
        },
        {
          "internalType": "bytes32",
          "name": "r",
          "type": "bytes32"
        },
        {
          "internalType": "bytes32",
          "name": "s",
          "type": "bytes32"
        }
      ],
      "name": "permit",
      "outputs": [],
      "stateMutability": "nonpayable",
      "type": "function"
    },
    {
      "inputs": [],
      "name": "renounceOwnership",
      "outputs": [],
      "stateMutability": "nonpayable",
      "type": "function"
    },
    {
      "inputs": [],
      "name": "symbol",
      "outputs": [
        {
          "internalType": "string",
          "name": "",
          "type": "string"
        }
      ],
      "stateMutability": "view",
      "type": "function"
    },
    {
      "inputs": [],
      "name": "totalSupply",
      "outputs": [
        {
          "internalType": "uint256",
          "name": "",
          "type": "uint256"
        }
      ],
      "stateMutability": "view",
      "type": "function"
    },
    {
      "inputs": [
        {
          "internalType": "address",
          "name": "to",
          "type": "address"
        },
        {
          "internalType": "uint256",
          "name": "value",
          "type": "uint256"
        }
      ],
      "name": "transfer",
      "outputs": [
        {
          "internalType": "bool",
          "name": "",
          "type": "bool"
        }
      ],
      "stateMutability": "nonpayable",
      "type": "function"
    },
    {
      "inputs": [
        {
          "internalType": "address",
          "name": "from",
          "type": "address"
        },
        {
          "internalType": "address",
          "name": "to",
          "type": "address"
        },
        {
          "internalType": "uint256",
          "name": "value",
          "type": "uint256"
        }
      ],
      "name": "transferFrom",
      "outputs": [
        {
          "internalType": "bool",
          "name": "",
          "type": "bool"
        }
      ],
      "stateMutability": "nonpayable",
      "type": "function"
    },
    {
      "inputs": [
        {
          "internalType": "address",
          "name": "newOwner",
          "type": "address"
        }
      ],
      "name": "transferOwnership",
      "outputs": [],
      "stateMutability": "nonpayable",
      "type": "function"
    }
  ],
  "bytecode": "0x6101606040523480156200001257600080fd5b5060405162002d3538038062002d358339810160408190526200003591620009a2565b806040518060400160405280600881526020016723b7bb2a37b5b2b760c11b81525080604051806040016040528060018152602001603160f81b8152506040518060400160405280600881526020016723b7bb2a37b5b2b760c11b8152506040518060400160405280600281526020016111d560f21b8152508160039081620000bf919062000a71565b506004620000ce828262000a71565b50620000e091508390506005620001f9565b61012052620000f1816006620001f9565b61014052815160208084019190912060e052815190820120610100524660a0526200017f60e05161010051604080517f8b73c3c69bb8fe3d512ecc4cf759cc79239f7b179b0ffacaa9a75d522b39400f60208201529081019290925260608201524660808201523060a082015260009060c00160405160208183030381529060405280519060200120905090565b60805250503060c052506001600160a01b038116620001bf576000604051631e4fbdf760e01b8152600401620001b6919062000b3d565b60405180910390fd5b620001ca8162000232565b50620001f281620001de6012600a62000c64565b620001ec906103e862000c75565b62000284565b5062000d7d565b600060208351101562000219576200021183620002c3565b90506200022c565b8162000226848262000a71565b5060ff90505b92915050565b600b80546001600160a01b038381166001600160a01b0319831681179093556040519116919082907f8be0079c531659141344cd1fd0a4f28419497f9722a3daafe3b4186f6b6457e090600090a35050565b6001600160a01b038216620002b157600060405163ec442f0560e01b8152600401620001b6919062000b3d565b620002bf6000838362000306565b5050565b600080829050601f81511115620002f1578260405163305a27a960e01b8152600401620001b6919062000c8f565b8051620002fe8262000cdf565b179392505050565b6200031383838362000318565b505050565b6200032583838362000387565b6001600160a01b0383166200037a5760006200034060025490565b90506001600160d01b03808211156200037757604051630e58ae9360e11b81526004810183905260248101829052604401620001b6565b50505b62000313838383620004ba565b6001600160a01b038316620003b6578060026000828254620003aa919062000d04565b909155506200042a9050565b6001600160a01b038316600090815260208190526040902054818110156200040b5760405163391434e360e21b81526001600160a01b03851660048201526024810182905260448101839052606401620001b6565b6001600160a01b03841660009081526020819052604090209082900390555b6001600160a01b038216620004485760028054829003905562000467565b6001600160a01b03821660009081526020819052604090208054820190555b816001600160a01b0316836001600160a01b03167fddf252ad1be2c89b69c2b068fc378daa952ba7f163c4a11628f55a4df523b3ef83604051620004ad91815260200190565b60405180910390a3505050565b6001600160a01b038316620004ef57620004ec600a6200094e6200053f60201b17620004e68462000554565b6200058e565b50505b6001600160a01b0382166200051e576200051b600a6200095a620005cb60201b17620004e68462000554565b50505b620003136200052d84620005d9565b6200053884620005d9565b83620005f7565b60006200054d828462000d1a565b9392505050565b60006001600160d01b038211156200058a576040516306dfcc6560e41b815260d0600482015260248101839052604401620001b6565b5090565b600080620005be6200059f6200075e565b620005b5620005ae886200076f565b868860201c565b879190620007be565b915091505b935093915050565b60006200054d828462000d44565b6001600160a01b039081166000908152600860205260409020541690565b816001600160a01b0316836001600160a01b0316141580156200061a5750600081115b1562000313576001600160a01b03831615620006bd576001600160a01b038316600090815260096020908152604082208291620006689190620005cb901b6200095a17620004e68662000554565b6001600160d01b031691506001600160d01b03169150846001600160a01b031660008051602062002d158339815191528383604051620006b2929190918252602082015260400190565b60405180910390a250505b6001600160a01b0382161562000313576001600160a01b0382166000908152600960209081526040822082916200070591906200053f901b6200094e17620004e68662000554565b6001600160d01b031691506001600160d01b03169150836001600160a01b031660008051602062002d1583398151915283836040516200074f929190918252602082015260400190565b60405180910390a25050505050565b60006200076a620007ce565b905090565b80546000908015620007b5576200079b836200078d60018462000d67565b600091825260209091200190565b54660100000000000090046001600160d01b03166200054d565b60009392505050565b600080620005be858585620007db565b60006200076a436200096d565b8254600090819080156200090e576000620007fd876200078d60018562000d67565b60408051808201909152905465ffffffffffff80821680845266010000000000009092046001600160d01b0316602084015291925090871610156200085557604051632520601d60e01b815260040160405180910390fd5b805165ffffffffffff808816911603620008a957846200087c886200078d60018662000d67565b80546001600160d01b039290921666010000000000000265ffffffffffff909216919091179055620008fd565b6040805180820190915265ffffffffffff80881682526001600160d01b0380881660208085019182528b54600181018d5560008d815291909120945191519092166601000000000000029216919091179101555b602001519250839150620005c39050565b50506040805180820190915265ffffffffffff80851682526001600160d01b0380851660208085019182528854600181018a5560008a8152918220955192519093166601000000000000029190931617920191909155905081620005c3565b600065ffffffffffff8211156200058a576040516306dfcc6560e41b81526030600482015260248101839052604401620001b6565b600060208284031215620009b557600080fd5b81516001600160a01b03811681146200054d57600080fd5b634e487b7160e01b600052604160045260246000fd5b600181811c90821680620009f857607f821691505b60208210810362000a1957634e487b7160e01b600052602260045260246000fd5b50919050565b601f8211156200031357600081815260208120601f850160051c8101602086101562000a485750805b601f850160051c820191505b8181101562000a695782815560010162000a54565b505050505050565b81516001600160401b0381111562000a8d5762000a8d620009cd565b62000aa58162000a9e8454620009e3565b8462000a1f565b602080601f83116001811462000add576000841562000ac45750858301515b600019600386901b1c1916600185901b17855562000a69565b600085815260208120601f198616915b8281101562000b0e5788860151825594840194600190910190840162000aed565b508582101562000b2d5787850151600019600388901b60f8161c191681555b5050505050600190811b01905550565b6001600160a01b0391909116815260200190565b634e487b7160e01b600052601160045260246000fd5b600181815b8085111562000ba857816000190482111562000b8c5762000b8c62000b51565b8085161562000b9a57918102915b93841c939080029062000b6c565b509250929050565b60008262000bc1575060016200022c565b8162000bd0575060006200022c565b816001811462000be9576002811462000bf45762000c14565b60019150506200022c565b60ff84111562000c085762000c0862000b51565b50506001821b6200022c565b5060208310610133831016604e8410600b841016171562000c39575081810a6200022c565b62000c45838362000b67565b806000190482111562000c5c5762000c5c62000b51565b029392505050565b60006200054d60ff84168362000bb0565b80820281158282048414176200022c576200022c62000b51565b600060208083528351808285015260005b8181101562000cbe5785810183015185820160400152820162000ca0565b506000604082860101526040601f19601f8301168501019250505092915050565b8051602080830151919081101562000a195760001960209190910360031b1b16919050565b808201808211156200022c576200022c62000b51565b6001600160d01b0381811683821601908082111562000d3d5762000d3d62000b51565b5092915050565b6001600160d01b0382811682821603908082111562000d3d5762000d3d62000b51565b818103818111156200022c576200022c62000b51565b60805160a05160c05160e051610100516101205161014051611f3d62000dd86000396000610df101526000610dc401526000610b0401526000610adc01526000610a3701526000610a6101526000610a8b0152611f3d6000f3fe608060405234801561001057600080fd5b50600436106101495760003560e01c806306fdde031461014e578063095ea7b31461016c57806318160ddd1461018f57806323b872dd146101a1578063313ce567146101b45780633644e515146101c35780633a46b1a8146101cb57806340c10f19146101de5780634bf5d7e9146101f3578063587cde1e146101fb5780635c19a95c1461021b5780636fcfff451461022e57806370a0823114610256578063715018a6146102695780637ecebe001461027157806384b0196e146102845780638da5cb5b1461029f5780638e539e8c146102a757806391ddadf4146102ba57806395d89b41146102d95780639ab24eb0146102e1578063a9059cbb146102f4578063c3cda52014610307578063d505accf1461031a578063dd62ed3e1461032d578063f1127ed814610340578063f2fde38b1461037f575b600080fd5b610156610392565b6040516101639190611ac3565b60405180910390f35b61017f61017a366004611af2565b610424565b6040519015158152602001610163565b6002545b604051908152602001610163565b61017f6101af366004611b1c565b61043e565b60405160128152602001610163565b610193610462565b6101936101d9366004611af2565b610471565b6101f16101ec366004611af2565b6104ee565b005b610156610504565b61020e610209366004611b58565b61057c565b6040516101639190611b73565b6101f1610229366004611b58565b61059a565b61024161023c366004611b58565b6105a5565b60405163ffffffff9091168152602001610163565b610193610264366004611b58565b6105b0565b6101f16105cb565b61019361027f366004611b58565b6105df565b61028c6105ea565b6040516101639796959493929190611b87565b61020e610630565b6101936102b5366004611c1d565b61063f565b6102c261069c565b60405165ffffffffffff9091168152602001610163565b6101566106a6565b6101936102ef366004611b58565b6106b5565b61017f610302366004611af2565b6106e5565b6101f1610315366004611c47565b6106f3565b6101f1610328366004611c9f565b6107b0565b61019361033b366004611d09565b6108cc565b61035361034e366004611d3c565b6108f7565b60408051825165ffffffffffff1681526020928301516001600160d01b03169281019290925201610163565b6101f161038d366004611b58565b610910565b6060600380546103a190611d7c565b80601f01602080910402602001604051908101604052809291908181526020018280546103cd90611d7c565b801561041a5780601f106103ef5761010080835404028352916020019161041a565b820191906000526020600020905b8154815290600101906020018083116103fd57829003601f168201915b5050505050905090565b600033610432818585610966565b60019150505b92915050565b60003361044c858285610978565b6104578585856109cb565b506001949350505050565b600061046c610a2a565b905090565b60008061047c61069c565b90508065ffffffffffff1683106104b3578281604051637669fc0f60e11b81526004016104aa929190611db6565b60405180910390fd5b6104dd6104bf84610b55565b6001600160a01b038616600090815260096020526040902090610b87565b6001600160d01b0316949350505050565b6104f6610c3d565b6105008282610c6f565b5050565b606061050e610ca5565b65ffffffffffff1661051e61069c565b65ffffffffffff1614610544576040516301bfc1c560e61b815260040160405180910390fd5b5060408051808201909152601d81527f6d6f64653d626c6f636b6e756d6265722666726f6d3d64656661756c74000000602082015290565b6001600160a01b039081166000908152600860205260409020541690565b336105008183610cb0565b600061043882610d2b565b6001600160a01b031660009081526020819052604090205490565b6105d3610c3d565b6105dd6000610d4d565b565b600061043882610d9f565b6000606080600080600060606105fe610dbd565b610606610dea565b60408051600080825260208201909252600f60f81b9b939a50919850469750309650945092509050565b600b546001600160a01b031690565b60008061064a61069c565b90508065ffffffffffff168310610678578281604051637669fc0f60e11b81526004016104aa929190611db6565b61068c61068484610b55565b600a90610b87565b6001600160d01b03169392505050565b600061046c610ca5565b6060600480546103a190611d7c565b6001600160a01b03811660009081526009602052604081206106d690610e17565b6001600160d01b031692915050565b6000336104328185856109cb565b8342111561071757604051632341d78760e11b8152600481018590526024016104aa565b604080517fe48329057bfd03d55e49b547132e39cffd9c1820ad7b9d4c5307691425d15adf60208201526001600160a01b038816918101919091526060810186905260808101859052600090610791906107899060a00160405160208183030381529060405280519060200120610e50565b858585610e7d565b905061079d8187610eab565b6107a78188610cb0565b50505050505050565b834211156107d45760405163313c898160e11b8152600481018590526024016104aa565b60007f6e71edae12b1b97f4d1f60370fef10105fa2faae0126114a169c64845d6126c98888886108038c610eea565b6040805160208101969096526001600160a01b0394851690860152929091166060840152608083015260a082015260c0810186905260e001604051602081830303815290604052805190602001209050600061085e82610e50565b9050600061086e82878787610e7d565b9050896001600160a01b0316816001600160a01b0316146108b5576040516325c0072360e11b81526001600160a01b0380831660048301528b1660248201526044016104aa565b6108c08a8a8a610966565b50505050505050505050565b6001600160a01b03918216600090815260016020908152604080832093909416825291909152205490565b6108ff611a66565b6109098383610f0d565b9392505050565b610918610c3d565b6001600160a01b038116610942576000604051631e4fbdf760e01b81526004016104aa9190611b73565b61094b81610d4d565b50565b60006109098284611de2565b60006109098284611e09565b6109738383836001610f37565b505050565b600061098484846108cc565b905060001981146109c557818110156109b657828183604051637dc7a0d960e11b81526004016104aa93929190611e29565b6109c584848484036000610f37565b50505050565b6001600160a01b0383166109f5576000604051634b637e8f60e11b81526004016104aa9190611b73565b6001600160a01b038216610a1f57600060405163ec442f0560e01b81526004016104aa9190611b73565b61097383838361100c565b6000306001600160a01b037f000000000000000000000000000000000000000000000000000000000000000016148015610a8357507f000000000000000000000000000000000000000000000000000000000000000046145b15610aad57507f000000000000000000000000000000000000000000000000000000000000000090565b61046c604080517f8b73c3c69bb8fe3d512ecc4cf759cc79239f7b179b0ffacaa9a75d522b39400f60208201527f0000000000000000000000000000000000000000000000000000000000000000918101919091527f000000000000000000000000000000000000000000000000000000000000000060608201524660808201523060a082015260009060c00160405160208183030381529060405280519060200120905090565b600065ffffffffffff821115610b83576030826040516306dfcc6560e41b81526004016104aa929190611e4a565b5090565b815460009081816005811115610be6576000610ba284611017565b610bac9085611e5d565b60008881526020902090915081015465ffffffffffff9081169087161015610bd657809150610be4565b610be1816001611e70565b92505b505b6000610bf4878785856110ff565b90508015610c2f57610c1987610c0b600184611e5d565b600091825260209091200190565b54600160301b90046001600160d01b0316610c32565b60005b979650505050505050565b33610c46610630565b6001600160a01b0316146105dd573360405163118cdaa760e01b81526004016104aa9190611b73565b6001600160a01b038216610c9957600060405163ec442f0560e01b81526004016104aa9190611b73565b6105006000838361100c565b600061046c43610b55565b6000610cbb8361057c565b6001600160a01b0384811660008181526008602052604080822080546001600160a01b031916888616908117909155905194955093928516927f3134e8a2e6d97e929a7e54011ea5485d7d196dd5f0ba4d4ef95803e8e3fc257f9190a46109738183610d2686611161565b61116c565b6001600160a01b038116600090815260096020526040812054610438906112b4565b600b80546001600160a01b038381166001600160a01b0319831681179093556040519116919082907f8be0079c531659141344cd1fd0a4f28419497f9722a3daafe3b4186f6b6457e090600090a35050565b6001600160a01b038116600090815260076020526040812054610438565b606061046c7f000000000000000000000000000000000000000000000000000000000000000060056112e0565b606061046c7f000000000000000000000000000000000000000000000000000000000000000060066112e0565b80546000908015610e4757610e3183610c0b600184611e5d565b54600160301b90046001600160d01b0316610909565b60009392505050565b6000610438610e5d610a2a565b8360405161190160f01b8152600281019290925260228201526042902090565b600080600080610e8f8888888861138b565b925092509250610e9f8282611450565b50909695505050505050565b6000610eb683610eea565b9050808214610973576040516301d4b62360e61b81526001600160a01b0384166004820152602481018290526044016104aa565b6001600160a01b0316600090815260076020526040902080546001810190915590565b610f15611a66565b6001600160a01b03831660009081526009602052604090206109099083611509565b6001600160a01b038416610f6157600060405163e602df0560e01b81526004016104aa9190611b73565b6001600160a01b038316610f8b576000604051634a1406b160e11b81526004016104aa9190611b73565b6001600160a01b03808516600090815260016020908152604080832093871683529290522082905580156109c557826001600160a01b0316846001600160a01b03167f8c5be1e5ebec7d5bd14f71427d1e84f3dd0314c0f7b2291e5b200ac8c7c3b92584604051610ffe91815260200190565b60405180910390a350505050565b61097383838361156d565b60008160000361102957506000919050565b60006001611036846115d4565b901c6001901b9050600181848161104f5761104f611e83565b048201901c9050600181848161106757611067611e83565b048201901c9050600181848161107f5761107f611e83565b048201901c9050600181848161109757611097611e83565b048201901c905060018184816110af576110af611e83565b048201901c905060018184816110c7576110c7611e83565b048201901c905060018184816110df576110df611e83565b048201901c9050610909818285816110f9576110f9611e83565b04611668565b60005b81831015611159576000611116848461167e565b60008781526020902090915065ffffffffffff86169082015465ffffffffffff16111561114557809250611153565b611150816001611e70565b93505b50611102565b509392505050565b6000610438826105b0565b816001600160a01b0316836001600160a01b03161415801561118e5750600081115b15610973576001600160a01b03831615611224576001600160a01b038316600090815260096020526040812081906111d19061095a6111cc86611699565b6116c8565b6001600160d01b031691506001600160d01b03169150846001600160a01b0316600080516020611ee88339815191528383604051611219929190918252602082015260400190565b60405180910390a250505b6001600160a01b03821615610973576001600160a01b0382166000908152600960205260408120819061125d9061094e6111cc86611699565b6001600160d01b031691506001600160d01b03169150836001600160a01b0316600080516020611ee883398151915283836040516112a5929190918252602082015260400190565b60405180910390a25050505050565b600063ffffffff821115610b83576020826040516306dfcc6560e41b81526004016104aa929190611e4a565b606060ff83146112fa576112f383611701565b9050610438565b81805461130690611d7c565b80601f016020809104026020016040519081016040528092919081815260200182805461133290611d7c565b801561137f5780601f106113545761010080835404028352916020019161137f565b820191906000526020600020905b81548152906001019060200180831161136257829003601f168201915b50505050509050610438565b600080806fa2a8918ca85bafe22016d0b997e4df60600160ff1b038411156113bc5750600091506003905082611446565b604080516000808252602082018084528a905260ff891692820192909252606081018790526080810186905260019060a0016020604051602081039080840390855afa158015611410573d6000803e3d6000fd5b5050604051601f1901519150506001600160a01b03811661143c57506000925060019150829050611446565b9250600091508190505b9450945094915050565b600082600381111561146457611464611e99565b0361146d575050565b600182600381111561148157611481611e99565b0361149f5760405163f645eedf60e01b815260040160405180910390fd5b60028260038111156114b3576114b3611e99565b036114d45760405163fce698f760e01b8152600481018290526024016104aa565b60038260038111156114e8576114e8611e99565b03610500576040516335e2f38360e21b8152600481018290526024016104aa565b611511611a66565b826000018263ffffffff168154811061152c5761152c611eaf565b60009182526020918290206040805180820190915291015465ffffffffffff81168252600160301b90046001600160d01b0316918101919091529392505050565b611578838383611740565b6001600160a01b0383166115c957600061159160025490565b90506001600160d01b03808211156115c657604051630e58ae9360e11b815260048101839052602481018290526044016104aa565b50505b610973838383611857565b600080608083901c156115e957608092831c92015b604083901c156115fb57604092831c92015b602083901c1561160d57602092831c92015b601083901c1561161f57601092831c92015b600883901c1561163157600892831c92015b600483901c1561164357600492831c92015b600283901c1561165557600292831c92015b600183901c156104385760010192915050565b60008183106116775781610909565b5090919050565b600061168d6002848418611ec5565b61090990848416611e70565b60006001600160d01b03821115610b835760d0826040516306dfcc6560e41b81526004016104aa929190611e4a565b6000806116f46116d661069c565b6116ec6116e288610e17565b868863ffffffff16565b8791906118b6565b915091505b935093915050565b6060600061170e836118c4565b604080516020808252818301909252919250600091906020820181803683375050509182525060208101929092525090565b6001600160a01b03831661176b5780600260008282546117609190611e70565b909155506117ca9050565b6001600160a01b038316600090815260208190526040902054818110156117ab5783818360405163391434e360e21b81526004016104aa93929190611e29565b6001600160a01b03841660009081526020819052604090209082900390555b6001600160a01b0382166117e657600280548290039055611805565b6001600160a01b03821660009081526020819052604090208054820190555b816001600160a01b0316836001600160a01b03167fddf252ad1be2c89b69c2b068fc378daa952ba7f163c4a11628f55a4df523b3ef8360405161184a91815260200190565b60405180910390a3505050565b6001600160a01b03831661187957611876600a61094e6111cc84611699565b50505b6001600160a01b03821661189b57611898600a61095a6111cc84611699565b50505b6109736118a78461057c565b6118b08461057c565b8361116c565b6000806116f48585856118ec565b600060ff8216601f81111561043857604051632cd44ac360e21b815260040160405180910390fd5b825460009081908015611a0b57600061190a87610c0b600185611e5d565b60408051808201909152905465ffffffffffff808216808452600160301b9092046001600160d01b03166020840152919250908716101561195e57604051632520601d60e01b815260040160405180910390fd5b805165ffffffffffff8088169116036119aa578461198188610c0b600186611e5d565b80546001600160d01b0392909216600160301b0265ffffffffffff9092169190911790556119fb565b6040805180820190915265ffffffffffff80881682526001600160d01b0380881660208085019182528b54600181018d5560008d81529190912094519151909216600160301b029216919091179101555b6020015192508391506116f99050565b50506040805180820190915265ffffffffffff80851682526001600160d01b0380851660208085019182528854600181018a5560008a815291822095519251909316600160301b0291909316179201919091559050816116f9565b604080518082019091526000808252602082015290565b6000815180845260005b81811015611aa357602081850181015186830182015201611a87565b506000602082860101526020601f19601f83011685010191505092915050565b6020815260006109096020830184611a7d565b80356001600160a01b0381168114611aed57600080fd5b919050565b60008060408385031215611b0557600080fd5b611b0e83611ad6565b946020939093013593505050565b600080600060608486031215611b3157600080fd5b611b3a84611ad6565b9250611b4860208501611ad6565b9150604084013590509250925092565b600060208284031215611b6a57600080fd5b61090982611ad6565b6001600160a01b0391909116815260200190565b60ff60f81b881681526000602060e081840152611ba760e084018a611a7d565b8381036040850152611bb9818a611a7d565b606085018990526001600160a01b038816608086015260a0850187905284810360c0860152855180825283870192509083019060005b81811015611c0b57835183529284019291840191600101611bef565b50909c9b505050505050505050505050565b600060208284031215611c2f57600080fd5b5035919050565b803560ff81168114611aed57600080fd5b60008060008060008060c08789031215611c6057600080fd5b611c6987611ad6565b95506020870135945060408701359350611c8560608801611c36565b92506080870135915060a087013590509295509295509295565b600080600080600080600060e0888a031215611cba57600080fd5b611cc388611ad6565b9650611cd160208901611ad6565b95506040880135945060608801359350611ced60808901611c36565b925060a0880135915060c0880135905092959891949750929550565b60008060408385031215611d1c57600080fd5b611d2583611ad6565b9150611d3360208401611ad6565b90509250929050565b60008060408385031215611d4f57600080fd5b611d5883611ad6565b9150602083013563ffffffff81168114611d7157600080fd5b809150509250929050565b600181811c90821680611d9057607f821691505b602082108103611db057634e487b7160e01b600052602260045260246000fd5b50919050565b91825265ffffffffffff16602082015260400190565b634e487b7160e01b600052601160045260246000fd5b6001600160d01b03818116838216019080821115611e0257611e02611dcc565b5092915050565b6001600160d01b03828116828216039080821115611e0257611e02611dcc565b6001600160a01b039390931683526020830191909152604082015260600190565b60ff929092168252602082015260400190565b8181038181111561043857610438611dcc565b8082018082111561043857610438611dcc565b634e487b7160e01b600052601260045260246000fd5b634e487b7160e01b600052602160045260246000fd5b634e487b7160e01b600052603260045260246000fd5b600082611ee257634e487b7160e01b600052601260045260246000fd5b50049056fedec2bacdd2f05b59de34da9b523dff8be42e5e38e818c82fdb0bae774387a724a26469706673582212204faf6f401b531d0d45e468c81bb38582b9a73e57aeee907bbdd8ebb2194ce57d64736f6c63430008140033dec2bacdd2f05b59de34da9b523dff8be42e5e38e818c82fdb0bae774387a724",
  "linkReferences": {},
  "deployedLinkReferences": {}
}