{
  "_format": "hh-sol-artifact-1",
  "contractName": "Cert",
  "sourceName": "contracts/Cert.sol",
  "abi": [
    {
      "inputs": [
        {
          "internalType": "address[]",
          "name": "_admins",
          "type": "address[]"
        }
      ],
      "stateMutability": "nonpayable",
      "type": "constructor"
    },
    {
      "anonymous": false,
      "inputs": [
        {
          "indexed": false,
          "internalType": "address",
          "name": "admin",
          "type": "address"
        }
      ],
      "name": "AddedAdmin",
      "type": "event"
    },
    {
      "anonymous": false,
      "inputs": [
        {
          "indexed": false,
          "internalType": "string",
          "name": "course",
          "type": "string"
        },
        {
          "indexed": false,
          "internalType": "uint256",
          "name": "id",
          "type": "uint256"
        },
        {
          "indexed": false,
          "internalType": "string",
          "name": "grade",
          "type": "string"
        }
      ],
      "name": "Issued",
      "type": "event"
    },
    {
      "anonymous": false,
      "inputs": [
        {
          "indexed": false,
          "internalType": "address",
          "name": "admin",
          "type": "address"
        }
      ],
      "name": "RevokedAdmin",
      "type": "event"
    },
    {
      "inputs": [
        {
          "internalType": "uint256",
          "name": "",
          "type": "uint256"
        }
      ],
      "name": "Certificates",
      "outputs": [
        {
          "internalType": "string",
          "name": "name",
          "type": "string"
        },
        {
          "internalType": "string",
          "name": "course",
          "type": "string"
        },
        {
          "internalType": "string",
          "name": "grade",
          "type": "string"
        },
        {
          "internalType": "string",
          "name": "date",
          "type": "string"
        }
      ],
      "stateMutability": "view",
      "type": "function"
    },
    {
      "inputs": [
        {
          "internalType": "address",
          "name": "admin",
          "type": "address"
        }
      ],
      "name": "addAdmin",
      "outputs": [],
      "stateMutability": "nonpayable",
      "type": "function"
    },
    {
      "inputs": [
        {
          "internalType": "uint256",
          "name": "",
          "type": "uint256"
        }
      ],
      "name": "admins",
      "outputs": [
        {
          "internalType": "address",
          "name": "",
          "type": "address"
        }
      ],
      "stateMutability": "view",
      "type": "function"
    },
    {
      "inputs": [
        {
          "internalType": "uint256",
          "name": "_id",
          "type": "uint256"
        },
        {
          "internalType": "string",
          "name": "_name",
          "type": "string"
        },
        {
          "internalType": "string",
          "name": "_course",
          "type": "string"
        },
        {
          "internalType": "string",
          "name": "_grade",
          "type": "string"
        },
        {
          "internalType": "string",
          "name": "_date",
          "type": "string"
        }
      ],
      "name": "issue",
      "outputs": [],
      "stateMutability": "nonpayable",
      "type": "function"
    },
    {
      "inputs": [
        {
          "internalType": "address",
          "name": "admin",
          "type": "address"
        }
      ],
      "name": "revokeAdmin",
      "outputs": [],
      "stateMutability": "nonpayable",
      "type": "function"
    }
  ],
  "bytecode": "0x60806040523480156200001157600080fd5b5060405162001a2838038062001a2883398181016040528101906200003791906200032b565b6000339080600181540180825580915050600190039060005260206000200160009091909190916101000a81548173ffffffffffffffffffffffffffffffffffffffff021916908373ffffffffffffffffffffffffffffffffffffffff16021790555060005b815181101562000135576000828281518110620000bf57620000be6200037c565b5b60200260200101519080600181540180825580915050600190039060005260206000200160009091909190916101000a81548173ffffffffffffffffffffffffffffffffffffffff021916908373ffffffffffffffffffffffffffffffffffffffff16021790555080806001019150506200009d565b5050620003ab565b6000604051905090565b600080fd5b600080fd5b600080fd5b6000601f19601f8301169050919050565b7f4e487b7100000000000000000000000000000000000000000000000000000000600052604160045260246000fd5b620001a18262000156565b810181811067ffffffffffffffff82111715620001c357620001c262000167565b5b80604052505050565b6000620001d86200013d565b9050620001e6828262000196565b919050565b600067ffffffffffffffff82111562000209576200020862000167565b5b602082029050602081019050919050565b600080fd5b600073ffffffffffffffffffffffffffffffffffffffff82169050919050565b60006200024c826200021f565b9050919050565b6200025e816200023f565b81146200026a57600080fd5b50565b6000815190506200027e8162000253565b92915050565b60006200029b6200029584620001eb565b620001cc565b90508083825260208201905060208402830185811115620002c157620002c06200021a565b5b835b81811015620002ee5780620002d988826200026d565b845260208401935050602081019050620002c3565b5050509392505050565b600082601f83011262000310576200030f62000151565b5b81516200032284826020860162000284565b91505092915050565b60006020828403121562000344576200034362000147565b5b600082015167ffffffffffffffff8111156200036557620003646200014c565b5b6200037384828501620002f8565b91505092915050565b7f4e487b7100000000000000000000000000000000000000000000000000000000600052603260045260246000fd5b61166d80620003bb6000396000f3fe608060405234801561001057600080fd5b50600436106100575760003560e01c806314bfd6d01461005c5780632d3456701461008c57806370480275146100a85780639622c836146100c4578063d1e7be26146100f7575b600080fd5b61007660048036038101906100719190610c41565b610113565b6040516100839190610caf565b60405180910390f35b6100a660048036038101906100a19190610cf6565b610152565b005b6100c260048036038101906100bd9190610cf6565b6104d3565b005b6100de60048036038101906100d99190610c41565b610739565b6040516100ee9493929190610db3565b60405180910390f35b610111600480360381019061010c9190610f49565b610989565b005b6000818154811061012357600080fd5b906000526020600020016000915054906101000a900473ffffffffffffffffffffffffffffffffffffffff1681565b6000805b6000805490508110156101ea576000818154811061017757610176611034565b5b9060005260206000200160009054906101000a900473ffffffffffffffffffffffffffffffffffffffff1673ffffffffffffffffffffffffffffffffffffffff163373ffffffffffffffffffffffffffffffffffffffff16036101dd57600191506101ea565b8080600101915050610156565b506001151581151514610232576040517f08c379a0000000000000000000000000000000000000000000000000000000008152600401610229906110af565b60405180910390fd5b816000805b6000805490508110156102cb576000818154811061025857610257611034565b5b9060005260206000200160009054906101000a900473ffffffffffffffffffffffffffffffffffffffff1673ffffffffffffffffffffffffffffffffffffffff168373ffffffffffffffffffffffffffffffffffffffff16036102be57600191506102cb565b8080600101915050610237565b506001151581151514610313576040517f08c379a000000000000000000000000000000000000000000000000000000000815260040161030a9061111b565b60405180910390fd5b6000805b60008054905081101561044d578573ffffffffffffffffffffffffffffffffffffffff166000828154811061034f5761034e611034565b5b9060005260206000200160009054906101000a900473ffffffffffffffffffffffffffffffffffffffff1673ffffffffffffffffffffffffffffffffffffffff16031561044057600081815481106103aa576103a9611034565b5b9060005260206000200160009054906101000a900473ffffffffffffffffffffffffffffffffffffffff16600083815481106103e9576103e8611034565b5b9060005260206000200160006101000a81548173ffffffffffffffffffffffffffffffffffffffff021916908373ffffffffffffffffffffffffffffffffffffffff160217905550818061043c9061116a565b9250505b8080600101915050610317565b5060008054806104605761045f6111b2565b5b6001900381819060005260206000200160006101000a81549073ffffffffffffffffffffffffffffffffffffffff021916905590557f26e1334bb4ac8458e1edfeedb64f96ceded27e8e84993b4f9460e01a1b203584856040516104c49190610caf565b60405180910390a15050505050565b6000805b60008054905081101561056b57600081815481106104f8576104f7611034565b5b9060005260206000200160009054906101000a900473ffffffffffffffffffffffffffffffffffffffff1673ffffffffffffffffffffffffffffffffffffffff163373ffffffffffffffffffffffffffffffffffffffff160361055e576001915061056b565b80806001019150506104d7565b5060011515811515146105b3576040517f08c379a00000000000000000000000000000000000000000000000000000000081526004016105aa906110af565b60405180910390fd5b8160006001905060005b600080549050811015610651578273ffffffffffffffffffffffffffffffffffffffff16600082815481106105f5576105f4611034565b5b9060005260206000200160009054906101000a900473ffffffffffffffffffffffffffffffffffffffff1673ffffffffffffffffffffffffffffffffffffffff16036106445760009150610651565b80806001019150506105bd565b506001151581151514610699576040517f08c379a000000000000000000000000000000000000000000000000000000000815260040161069090611253565b60405180910390fd5b6000849080600181540180825580915050600190039060005260206000200160009091909190916101000a81548173ffffffffffffffffffffffffffffffffffffffff021916908373ffffffffffffffffffffffffffffffffffffffff1602179055507f7849194239ab1d31b991b5436d81370256505cf25eaafbcccbc66acd118969168460405161072b9190610caf565b60405180910390a150505050565b600160205280600052604060002060009150905080600001805461075c906112a2565b80601f0160208091040260200160405190810160405280929190818152602001828054610788906112a2565b80156107d55780601f106107aa576101008083540402835291602001916107d5565b820191906000526020600020905b8154815290600101906020018083116107b857829003601f168201915b5050505050908060010180546107ea906112a2565b80601f0160208091040260200160405190810160405280929190818152602001828054610816906112a2565b80156108635780601f1061083857610100808354040283529160200191610863565b820191906000526020600020905b81548152906001019060200180831161084657829003601f168201915b505050505090806002018054610878906112a2565b80601f01602080910402602001604051908101604052809291908181526020018280546108a4906112a2565b80156108f15780601f106108c6576101008083540402835291602001916108f1565b820191906000526020600020905b8154815290600101906020018083116108d457829003601f168201915b505050505090806003018054610906906112a2565b80601f0160208091040260200160405190810160405280929190818152602001828054610932906112a2565b801561097f5780601f106109545761010080835404028352916020019161097f565b820191906000526020600020905b81548152906001019060200180831161096257829003601f168201915b5050505050905084565b6000805b600080549050811015610a2157600081815481106109ae576109ad611034565b5b9060005260206000200160009054906101000a900473ffffffffffffffffffffffffffffffffffffffff1673ffffffffffffffffffffffffffffffffffffffff163373ffffffffffffffffffffffffffffffffffffffff1603610a145760019150610a21565b808060010191505061098d565b506001151581151514610a69576040517f08c379a0000000000000000000000000000000000000000000000000000000008152600401610a60906110af565b60405180910390fd5b8560006001905060005b600354811015610aad5782600260008381526020019081526020016000205403610aa05760009150610aad565b8080600101915050610a73565b506001151581151514610af5576040517f08c379a0000000000000000000000000000000000000000000000000000000008152600401610aec90611345565b60405180910390fd5b604051806080016040528088815260200187815260200186815260200185815250600160008a81526020019081526020016000206000820151816000019081610b3e9190611511565b506020820151816001019081610b549190611511565b506040820151816002019081610b6a9190611511565b506060820151816003019081610b809190611511565b50905050876002600060036000815480929190610b9c9061116a565b919050558152602001908152602001600020819055507fc7fc4858662996e8fe091a9941384ab745bfc51199d7c0a5e45a791ff945993c868987604051610be5939291906115f2565b60405180910390a15050505050505050565b6000604051905090565b600080fd5b600080fd5b6000819050919050565b610c1e81610c0b565b8114610c2957600080fd5b50565b600081359050610c3b81610c15565b92915050565b600060208284031215610c5757610c56610c01565b5b6000610c6584828501610c2c565b91505092915050565b600073ffffffffffffffffffffffffffffffffffffffff82169050919050565b6000610c9982610c6e565b9050919050565b610ca981610c8e565b82525050565b6000602082019050610cc46000830184610ca0565b92915050565b610cd381610c8e565b8114610cde57600080fd5b50565b600081359050610cf081610cca565b92915050565b600060208284031215610d0c57610d0b610c01565b5b6000610d1a84828501610ce1565b91505092915050565b600081519050919050565b600082825260208201905092915050565b60005b83811015610d5d578082015181840152602081019050610d42565b60008484015250505050565b6000601f19601f8301169050919050565b6000610d8582610d23565b610d8f8185610d2e565b9350610d9f818560208601610d3f565b610da881610d69565b840191505092915050565b60006080820190508181036000830152610dcd8187610d7a565b90508181036020830152610de18186610d7a565b90508181036040830152610df58185610d7a565b90508181036060830152610e098184610d7a565b905095945050505050565b600080fd5b600080fd5b7f4e487b7100000000000000000000000000000000000000000000000000000000600052604160045260246000fd5b610e5682610d69565b810181811067ffffffffffffffff82111715610e7557610e74610e1e565b5b80604052505050565b6000610e88610bf7565b9050610e948282610e4d565b919050565b600067ffffffffffffffff821115610eb457610eb3610e1e565b5b610ebd82610d69565b9050602081019050919050565b82818337600083830152505050565b6000610eec610ee784610e99565b610e7e565b905082815260208101848484011115610f0857610f07610e19565b5b610f13848285610eca565b509392505050565b600082601f830112610f3057610f2f610e14565b5b8135610f40848260208601610ed9565b91505092915050565b600080600080600060a08688031215610f6557610f64610c01565b5b6000610f7388828901610c2c565b955050602086013567ffffffffffffffff811115610f9457610f93610c06565b5b610fa088828901610f1b565b945050604086013567ffffffffffffffff811115610fc157610fc0610c06565b5b610fcd88828901610f1b565b935050606086013567ffffffffffffffff811115610fee57610fed610c06565b5b610ffa88828901610f1b565b925050608086013567ffffffffffffffff81111561101b5761101a610c06565b5b61102788828901610f1b565b9150509295509295909350565b7f4e487b7100000000000000000000000000000000000000000000000000000000600052603260045260246000fd5b7f4163636573732044656e69656400000000000000000000000000000000000000600082015250565b6000611099600d83610d2e565b91506110a482611063565b602082019050919050565b600060208201905081810360008301526110c88161108c565b9050919050565b7f4e6f7420616e2061646d696e0000000000000000000000000000000000000000600082015250565b6000611105600c83610d2e565b9150611110826110cf565b602082019050919050565b60006020820190508181036000830152611134816110f8565b9050919050565b7f4e487b7100000000000000000000000000000000000000000000000000000000600052601160045260246000fd5b600061117582610c0b565b91507fffffffffffffffffffffffffffffffffffffffffffffffffffffffffffffffff82036111a7576111a661113b565b5b600182019050919050565b7f4e487b7100000000000000000000000000000000000000000000000000000000600052603160045260246000fd5b7f54686973206164647265737320697320616c726561647920616e2061646d696e60008201527f2e00000000000000000000000000000000000000000000000000000000000000602082015250565b600061123d602183610d2e565b9150611248826111e1565b604082019050919050565b6000602082019050818103600083015261126c81611230565b9050919050565b7f4e487b7100000000000000000000000000000000000000000000000000000000600052602260045260246000fd5b600060028204905060018216806112ba57607f821691505b6020821081036112cd576112cc611273565b5b50919050565b7f412063657274696669636174652068617320616c7265616479206265656e206960008201527f7373756564207769746820746869732049442e00000000000000000000000000602082015250565b600061132f603383610d2e565b915061133a826112d3565b604082019050919050565b6000602082019050818103600083015261135e81611322565b9050919050565b60008190508160005260206000209050919050565b60006020601f8301049050919050565b600082821b905092915050565b6000600883026113c77fffffffffffffffffffffffffffffffffffffffffffffffffffffffffffffffff8261138a565b6113d1868361138a565b95508019841693508086168417925050509392505050565b6000819050919050565b600061140e61140961140484610c0b565b6113e9565b610c0b565b9050919050565b6000819050919050565b611428836113f3565b61143c61143482611415565b848454611397565b825550505050565b600090565b611451611444565b61145c81848461141f565b505050565b5b8181101561148057611475600082611449565b600181019050611462565b5050565b601f8211156114c55761149681611365565b61149f8461137a565b810160208510156114ae578190505b6114c26114ba8561137a565b830182611461565b50505b505050565b600082821c905092915050565b60006114e8600019846008026114ca565b1980831691505092915050565b600061150183836114d7565b9150826002028217905092915050565b61151a82610d23565b67ffffffffffffffff81111561153357611532610e1e565b5b61153d82546112a2565b611548828285611484565b600060209050601f83116001811461157b5760008415611569578287015190505b61157385826114f5565b8655506115db565b601f19841661158986611365565b60005b828110156115b15784890151825560018201915060208501945060208101905061158c565b868310156115ce57848901516115ca601f8916826114d7565b8355505b6001600288020188555050505b505050505050565b6115ec81610c0b565b82525050565b6000606082019050818103600083015261160c8186610d7a565b905061161b60208301856115e3565b818103604083015261162d8184610d7a565b905094935050505056fea2646970667358221220d79c686d14eb634f885ec2069333f27b11928227789504f25694487a14bf553564736f6c63430008180033",
  "linkReferences": {},
  "deployedLinkReferences": {},
  "contractAddress": "0x5FbDB2315678afecb367f032d93F642f64180aa3"
}