{
  "_format": "hh-sol-artifact-1",
  "contractName": "Cert",
  "sourceName": "contracts/Cert.sol",
  "abi": [
    {
      "inputs": [
        {
          "internalType": "address[]",
          "name": "_admins",
          "type": "address[]"
        }
      ],
      "stateMutability": "nonpayable",
      "type": "constructor"
    },
    {
      "anonymous": false,
      "inputs": [
        {
          "indexed": false,
          "internalType": "string",
          "name": "course",
          "type": "string"
        },
        {
          "indexed": false,
          "internalType": "uint256",
          "name": "id",
          "type": "uint256"
        },
        {
          "indexed": false,
          "internalType": "string",
          "name": "grade",
          "type": "string"
        }
      ],
      "name": "Issued",
      "type": "event"
    },
    {
      "inputs": [
        {
          "internalType": "uint256",
          "name": "",
          "type": "uint256"
        }
      ],
      "name": "Certificates",
      "outputs": [
        {
          "internalType": "string",
          "name": "name",
          "type": "string"
        },
        {
          "internalType": "string",
          "name": "course",
          "type": "string"
        },
        {
          "internalType": "string",
          "name": "grade",
          "type": "string"
        },
        {
          "internalType": "string",
          "name": "date",
          "type": "string"
        }
      ],
      "stateMutability": "view",
      "type": "function"
    },
    {
      "inputs": [
        {
          "internalType": "uint256",
          "name": "",
          "type": "uint256"
        }
      ],
      "name": "admins",
      "outputs": [
        {
          "internalType": "address",
          "name": "",
          "type": "address"
        }
      ],
      "stateMutability": "view",
      "type": "function"
    },
    {
      "inputs": [
        {
          "internalType": "uint256",
          "name": "_id",
          "type": "uint256"
        },
        {
          "internalType": "string",
          "name": "_name",
          "type": "string"
        },
        {
          "internalType": "string",
          "name": "_course",
          "type": "string"
        },
        {
          "internalType": "string",
          "name": "_grade",
          "type": "string"
        },
        {
          "internalType": "string",
          "name": "_date",
          "type": "string"
        }
      ],
      "name": "issue",
      "outputs": [],
      "stateMutability": "nonpayable",
      "type": "function"
    }
  ],
  "bytecode": "0x60806040523480156200001157600080fd5b506040516200126d3803806200126d83398181016040528101906200003791906200032b565b6000339080600181540180825580915050600190039060005260206000200160009091909190916101000a81548173ffffffffffffffffffffffffffffffffffffffff021916908373ffffffffffffffffffffffffffffffffffffffff16021790555060005b815181101562000135576000828281518110620000bf57620000be6200037c565b5b60200260200101519080600181540180825580915050600190039060005260206000200160009091909190916101000a81548173ffffffffffffffffffffffffffffffffffffffff021916908373ffffffffffffffffffffffffffffffffffffffff16021790555080806001019150506200009d565b5050620003ab565b6000604051905090565b600080fd5b600080fd5b600080fd5b6000601f19601f8301169050919050565b7f4e487b7100000000000000000000000000000000000000000000000000000000600052604160045260246000fd5b620001a18262000156565b810181811067ffffffffffffffff82111715620001c357620001c262000167565b5b80604052505050565b6000620001d86200013d565b9050620001e6828262000196565b919050565b600067ffffffffffffffff82111562000209576200020862000167565b5b602082029050602081019050919050565b600080fd5b600073ffffffffffffffffffffffffffffffffffffffff82169050919050565b60006200024c826200021f565b9050919050565b6200025e816200023f565b81146200026a57600080fd5b50565b6000815190506200027e8162000253565b92915050565b60006200029b6200029584620001eb565b620001cc565b90508083825260208201905060208402830185811115620002c157620002c06200021a565b5b835b81811015620002ee5780620002d988826200026d565b845260208401935050602081019050620002c3565b5050509392505050565b600082601f83011262000310576200030f62000151565b5b81516200032284826020860162000284565b91505092915050565b60006020828403121562000344576200034362000147565b5b600082015167ffffffffffffffff8111156200036557620003646200014c565b5b6200037384828501620002f8565b91505092915050565b7f4e487b7100000000000000000000000000000000000000000000000000000000600052603260045260246000fd5b610eb280620003bb6000396000f3fe608060405234801561001057600080fd5b50600436106100415760003560e01c806314bfd6d0146100465780639622c83614610076578063d1e7be26146100a9575b600080fd5b610060600480360381019061005b919061060c565b6100c5565b60405161006d919061067a565b60405180910390f35b610090600480360381019061008b919061060c565b610104565b6040516100a09493929190610725565b60405180910390f35b6100c360048036038101906100be91906108bb565b610354565b005b600081815481106100d557600080fd5b906000526020600020016000915054906101000a900473ffffffffffffffffffffffffffffffffffffffff1681565b6001602052806000526040600020600091509050806000018054610127906109d5565b80601f0160208091040260200160405190810160405280929190818152602001828054610153906109d5565b80156101a05780601f10610175576101008083540402835291602001916101a0565b820191906000526020600020905b81548152906001019060200180831161018357829003601f168201915b5050505050908060010180546101b5906109d5565b80601f01602080910402602001604051908101604052809291908181526020018280546101e1906109d5565b801561022e5780601f106102035761010080835404028352916020019161022e565b820191906000526020600020905b81548152906001019060200180831161021157829003601f168201915b505050505090806002018054610243906109d5565b80601f016020809104026020016040519081016040528092919081815260200182805461026f906109d5565b80156102bc5780601f10610291576101008083540402835291602001916102bc565b820191906000526020600020905b81548152906001019060200180831161029f57829003601f168201915b5050505050908060030180546102d1906109d5565b80601f01602080910402602001604051908101604052809291908181526020018280546102fd906109d5565b801561034a5780601f1061031f5761010080835404028352916020019161034a565b820191906000526020600020905b81548152906001019060200180831161032d57829003601f168201915b5050505050905084565b6000805b6000805490508110156103ec576000818154811061037957610378610a06565b5b9060005260206000200160009054906101000a900473ffffffffffffffffffffffffffffffffffffffff1673ffffffffffffffffffffffffffffffffffffffff163373ffffffffffffffffffffffffffffffffffffffff16036103df57600191506103ec565b8080600101915050610358565b506001151581151514610434576040517f08c379a000000000000000000000000000000000000000000000000000000000815260040161042b90610a81565b60405180910390fd5b8560006001905060005b600354811015610478578260026000838152602001908152602001600020540361046b5760009150610478565b808060010191505061043e565b5060011515811515146104c0576040517f08c379a00000000000000000000000000000000000000000000000000000000081526004016104b790610b13565b60405180910390fd5b604051806080016040528088815260200187815260200186815260200185815250600160008a815260200190815260200160002060008201518160000190816105099190610cdf565b50602082015181600101908161051f9190610cdf565b5060408201518160020190816105359190610cdf565b50606082015181600301908161054b9190610cdf565b5090505087600260006003600081548092919061056790610de0565b919050558152602001908152602001600020819055507fc7fc4858662996e8fe091a9941384ab745bfc51199d7c0a5e45a791ff945993c8689876040516105b093929190610e37565b60405180910390a15050505050505050565b6000604051905090565b600080fd5b600080fd5b6000819050919050565b6105e9816105d6565b81146105f457600080fd5b50565b600081359050610606816105e0565b92915050565b600060208284031215610622576106216105cc565b5b6000610630848285016105f7565b91505092915050565b600073ffffffffffffffffffffffffffffffffffffffff82169050919050565b600061066482610639565b9050919050565b61067481610659565b82525050565b600060208201905061068f600083018461066b565b92915050565b600081519050919050565b600082825260208201905092915050565b60005b838110156106cf5780820151818401526020810190506106b4565b60008484015250505050565b6000601f19601f8301169050919050565b60006106f782610695565b61070181856106a0565b93506107118185602086016106b1565b61071a816106db565b840191505092915050565b6000608082019050818103600083015261073f81876106ec565b9050818103602083015261075381866106ec565b9050818103604083015261076781856106ec565b9050818103606083015261077b81846106ec565b905095945050505050565b600080fd5b600080fd5b7f4e487b7100000000000000000000000000000000000000000000000000000000600052604160045260246000fd5b6107c8826106db565b810181811067ffffffffffffffff821117156107e7576107e6610790565b5b80604052505050565b60006107fa6105c2565b905061080682826107bf565b919050565b600067ffffffffffffffff82111561082657610825610790565b5b61082f826106db565b9050602081019050919050565b82818337600083830152505050565b600061085e6108598461080b565b6107f0565b90508281526020810184848401111561087a5761087961078b565b5b61088584828561083c565b509392505050565b600082601f8301126108a2576108a1610786565b5b81356108b284826020860161084b565b91505092915050565b600080600080600060a086880312156108d7576108d66105cc565b5b60006108e5888289016105f7565b955050602086013567ffffffffffffffff811115610906576109056105d1565b5b6109128882890161088d565b945050604086013567ffffffffffffffff811115610933576109326105d1565b5b61093f8882890161088d565b935050606086013567ffffffffffffffff8111156109605761095f6105d1565b5b61096c8882890161088d565b925050608086013567ffffffffffffffff81111561098d5761098c6105d1565b5b6109998882890161088d565b9150509295509295909350565b7f4e487b7100000000000000000000000000000000000000000000000000000000600052602260045260246000fd5b600060028204905060018216806109ed57607f821691505b602082108103610a00576109ff6109a6565b5b50919050565b7f4e487b7100000000000000000000000000000000000000000000000000000000600052603260045260246000fd5b7f4163636573732044656e69656400000000000000000000000000000000000000600082015250565b6000610a6b600d836106a0565b9150610a7682610a35565b602082019050919050565b60006020820190508181036000830152610a9a81610a5e565b9050919050565b7f412063657274696669636174652068617320616c7265616479206265656e206960008201527f7373756564207769746820746869732049442e00000000000000000000000000602082015250565b6000610afd6033836106a0565b9150610b0882610aa1565b604082019050919050565b60006020820190508181036000830152610b2c81610af0565b9050919050565b60008190508160005260206000209050919050565b60006020601f8301049050919050565b600082821b905092915050565b600060088302610b957fffffffffffffffffffffffffffffffffffffffffffffffffffffffffffffffff82610b58565b610b9f8683610b58565b95508019841693508086168417925050509392505050565b6000819050919050565b6000610bdc610bd7610bd2846105d6565b610bb7565b6105d6565b9050919050565b6000819050919050565b610bf683610bc1565b610c0a610c0282610be3565b848454610b65565b825550505050565b600090565b610c1f610c12565b610c2a818484610bed565b505050565b5b81811015610c4e57610c43600082610c17565b600181019050610c30565b5050565b601f821115610c9357610c6481610b33565b610c6d84610b48565b81016020851015610c7c578190505b610c90610c8885610b48565b830182610c2f565b50505b505050565b600082821c905092915050565b6000610cb660001984600802610c98565b1980831691505092915050565b6000610ccf8383610ca5565b9150826002028217905092915050565b610ce882610695565b67ffffffffffffffff811115610d0157610d00610790565b5b610d0b82546109d5565b610d16828285610c52565b600060209050601f831160018114610d495760008415610d37578287015190505b610d418582610cc3565b865550610da9565b601f198416610d5786610b33565b60005b82811015610d7f57848901518255600182019150602085019450602081019050610d5a565b86831015610d9c5784890151610d98601f891682610ca5565b8355505b6001600288020188555050505b505050505050565b7f4e487b7100000000000000000000000000000000000000000000000000000000600052601160045260246000fd5b6000610deb826105d6565b91507fffffffffffffffffffffffffffffffffffffffffffffffffffffffffffffffff8203610e1d57610e1c610db1565b5b600182019050919050565b610e31816105d6565b82525050565b60006060820190508181036000830152610e5181866106ec565b9050610e606020830185610e28565b8181036040830152610e7281846106ec565b905094935050505056fea26469706673582212204abdde166a8352570cc375d5fd05994db87955a4b643c831648ebef65900584364736f6c63430008180033",
  "linkReferences": {},
  "deployedLinkReferences": {}
}